{
  "contractName": "LuxChain",
  "abi": [
    {
      "inputs": [
        {
          "internalType": "string",
          "name": "_name",
          "type": "string"
        },
        {
          "internalType": "string",
          "name": "_symbol",
          "type": "string"
        }
      ],
      "stateMutability": "nonpayable",
      "type": "constructor"
    },
    {
      "anonymous": false,
      "inputs": [
        {
          "indexed": true,
          "internalType": "address",
          "name": "owner",
          "type": "address"
        },
        {
          "indexed": true,
          "internalType": "address",
          "name": "approved",
          "type": "address"
        },
        {
          "indexed": true,
          "internalType": "uint256",
          "name": "tokenId",
          "type": "uint256"
        }
      ],
      "name": "Approval",
      "type": "event"
    },
    {
      "anonymous": false,
      "inputs": [
        {
          "indexed": true,
          "internalType": "address",
          "name": "owner",
          "type": "address"
        },
        {
          "indexed": true,
          "internalType": "address",
          "name": "operator",
          "type": "address"
        },
        {
          "indexed": false,
          "internalType": "bool",
          "name": "approved",
          "type": "bool"
        }
      ],
      "name": "ApprovalForAll",
      "type": "event"
    },
    {
      "anonymous": false,
      "inputs": [
        {
          "indexed": true,
          "internalType": "address",
          "name": "from",
          "type": "address"
        },
        {
          "indexed": true,
          "internalType": "address",
          "name": "to",
          "type": "address"
        },
        {
          "indexed": true,
          "internalType": "uint256",
          "name": "tokenId",
          "type": "uint256"
        }
      ],
      "name": "Transfer",
      "type": "event"
    },
    {
      "anonymous": false,
      "inputs": [
        {
          "indexed": false,
          "internalType": "uint256",
          "name": "_tokenId",
          "type": "uint256"
        }
      ],
      "name": "invalidToken",
      "type": "event"
    },
    {
      "anonymous": false,
      "inputs": [
        {
          "indexed": false,
          "internalType": "address",
          "name": "_to",
          "type": "address"
        },
        {
          "indexed": false,
          "internalType": "string",
          "name": "_serNumber",
          "type": "string"
        },
        {
          "indexed": false,
          "internalType": "uint256",
          "name": "tokenId",
          "type": "uint256"
        }
      ],
      "name": "mintToken",
      "type": "event"
    },
    {
      "anonymous": false,
      "inputs": [
        {
          "indexed": false,
          "internalType": "uint256",
          "name": "_tokenId",
          "type": "uint256"
        }
      ],
      "name": "tokenLost",
      "type": "event"
    },
    {
      "anonymous": false,
      "inputs": [
        {
          "indexed": false,
          "internalType": "uint256",
          "name": "_tokenId",
          "type": "uint256"
        }
      ],
      "name": "tokendestory",
      "type": "event"
    },
    {
      "anonymous": false,
      "inputs": [
        {
          "indexed": false,
          "internalType": "uint256",
          "name": "_tokenId",
          "type": "uint256"
        }
      ],
      "name": "tokenrestored",
      "type": "event"
    },
    {
      "anonymous": false,
      "inputs": [
        {
          "indexed": false,
          "internalType": "address",
          "name": "_from",
          "type": "address"
        },
        {
          "indexed": false,
          "internalType": "address",
          "name": "_to",
          "type": "address"
        },
        {
          "indexed": false,
          "internalType": "uint256",
          "name": "_tokenId",
          "type": "uint256"
        }
      ],
      "name": "transferEvent",
      "type": "event"
    },
    {
      "inputs": [
        {
          "internalType": "address",
          "name": "to",
          "type": "address"
        },
        {
          "internalType": "uint256",
          "name": "tokenId",
          "type": "uint256"
        }
      ],
      "name": "approve",
      "outputs": [],
      "stateMutability": "nonpayable",
      "type": "function"
    },
    {
      "inputs": [
        {
          "internalType": "address",
          "name": "owner",
          "type": "address"
        }
      ],
      "name": "balanceOf",
      "outputs": [
        {
          "internalType": "uint256",
          "name": "",
          "type": "uint256"
        }
      ],
      "stateMutability": "view",
      "type": "function",
      "constant": true
    },
    {
      "inputs": [
        {
          "internalType": "uint256",
          "name": "tokenId",
          "type": "uint256"
        }
      ],
      "name": "getApproved",
      "outputs": [
        {
          "internalType": "address",
          "name": "",
          "type": "address"
        }
      ],
      "stateMutability": "view",
      "type": "function",
      "constant": true
    },
    {
      "inputs": [
        {
          "internalType": "address",
          "name": "owner",
          "type": "address"
        },
        {
          "internalType": "address",
          "name": "operator",
          "type": "address"
        }
      ],
      "name": "isApprovedForAll",
      "outputs": [
        {
          "internalType": "bool",
          "name": "",
          "type": "bool"
        }
      ],
      "stateMutability": "view",
      "type": "function",
      "constant": true
    },
    {
      "inputs": [],
      "name": "name",
      "outputs": [
        {
          "internalType": "string",
          "name": "",
          "type": "string"
        }
      ],
      "stateMutability": "view",
      "type": "function",
      "constant": true
    },
    {
      "inputs": [
        {
          "internalType": "uint256",
          "name": "tokenId",
          "type": "uint256"
        }
      ],
      "name": "ownerOf",
      "outputs": [
        {
          "internalType": "address",
          "name": "",
          "type": "address"
        }
      ],
      "stateMutability": "view",
      "type": "function",
      "constant": true
    },
    {
      "inputs": [
        {
          "internalType": "address",
          "name": "from",
          "type": "address"
        },
        {
          "internalType": "address",
          "name": "to",
          "type": "address"
        },
        {
          "internalType": "uint256",
          "name": "tokenId",
          "type": "uint256"
        }
      ],
      "name": "safeTransferFrom",
      "outputs": [],
      "stateMutability": "nonpayable",
      "type": "function"
    },
    {
      "inputs": [
        {
          "internalType": "address",
          "name": "from",
          "type": "address"
        },
        {
          "internalType": "address",
          "name": "to",
          "type": "address"
        },
        {
          "internalType": "uint256",
          "name": "tokenId",
          "type": "uint256"
        },
        {
          "internalType": "bytes",
          "name": "_data",
          "type": "bytes"
        }
      ],
      "name": "safeTransferFrom",
      "outputs": [],
      "stateMutability": "nonpayable",
      "type": "function"
    },
    {
      "inputs": [
        {
          "internalType": "address",
          "name": "operator",
          "type": "address"
        },
        {
          "internalType": "bool",
          "name": "approved",
          "type": "bool"
        }
      ],
      "name": "setApprovalForAll",
      "outputs": [],
      "stateMutability": "nonpayable",
      "type": "function"
    },
    {
      "inputs": [
        {
          "internalType": "bytes4",
          "name": "interfaceId",
          "type": "bytes4"
        }
      ],
      "name": "supportsInterface",
      "outputs": [
        {
          "internalType": "bool",
          "name": "",
          "type": "bool"
        }
      ],
      "stateMutability": "view",
      "type": "function",
      "constant": true
    },
    {
      "inputs": [],
      "name": "symbol",
      "outputs": [
        {
          "internalType": "string",
          "name": "",
          "type": "string"
        }
      ],
      "stateMutability": "view",
      "type": "function",
      "constant": true
    },
    {
      "inputs": [
        {
          "internalType": "uint256",
          "name": "tokenId",
          "type": "uint256"
        }
      ],
      "name": "tokenURI",
      "outputs": [
        {
          "internalType": "string",
          "name": "",
          "type": "string"
        }
      ],
      "stateMutability": "view",
      "type": "function",
      "constant": true
    },
    {
      "inputs": [
        {
          "internalType": "address",
          "name": "_to",
          "type": "address"
        },
        {
          "internalType": "string",
          "name": "_serialNumber",
          "type": "string"
        },
        {
          "internalType": "string",
          "name": "_name",
          "type": "string"
        }
      ],
      "name": "mint",
      "outputs": [],
      "stateMutability": "nonpayable",
      "type": "function"
    },
    {
      "inputs": [
        {
          "internalType": "uint256",
          "name": "_tokenId",
          "type": "uint256"
        }
      ],
      "name": "invalidateToken",
      "outputs": [],
      "stateMutability": "nonpayable",
      "type": "function"
    },
    {
      "inputs": [
        {
          "internalType": "uint256",
          "name": "_tokenId",
          "type": "uint256"
        }
      ],
      "name": "reportlost",
      "outputs": [],
      "stateMutability": "nonpayable",
      "type": "function"
    },
    {
      "inputs": [
        {
          "internalType": "uint256",
          "name": "_tokenId",
          "type": "uint256"
        }
      ],
      "name": "restoreToken",
      "outputs": [],
      "stateMutability": "nonpayable",
      "type": "function"
    },
    {
      "inputs": [
        {
          "internalType": "uint256",
          "name": "_tokenId",
          "type": "uint256"
        }
      ],
      "name": "checkState",
      "outputs": [
        {
          "internalType": "enum LuxChain.stages",
          "name": "",
          "type": "uint8"
        }
      ],
      "stateMutability": "view",
      "type": "function",
      "constant": true
    },
    {
      "inputs": [
        {
          "internalType": "address",
          "name": "_from",
          "type": "address"
        },
        {
          "internalType": "address",
          "name": "_to",
          "type": "address"
        },
        {
          "internalType": "uint256",
          "name": "_tokenId",
          "type": "uint256"
        }
      ],
      "name": "transferFrom",
      "outputs": [],
      "stateMutability": "nonpayable",
      "type": "function"
    },
    {
      "inputs": [
        {
          "internalType": "uint256",
          "name": "_tokenId",
          "type": "uint256"
        },
        {
          "internalType": "string",
          "name": "_information",
          "type": "string"
        }
      ],
      "name": "updateInformation",
      "outputs": [],
      "stateMutability": "nonpayable",
      "type": "function"
    },
    {
      "inputs": [
        {
          "internalType": "uint256",
          "name": "_tokenId",
          "type": "uint256"
        }
      ],
      "name": "viewSerialNumber",
      "outputs": [
        {
          "internalType": "string",
          "name": "",
          "type": "string"
        }
      ],
      "stateMutability": "view",
      "type": "function",
      "constant": true
    },
    {
      "inputs": [
        {
          "internalType": "uint256",
          "name": "_tokenId",
          "type": "uint256"
        }
      ],
      "name": "viewName",
      "outputs": [
        {
          "internalType": "string",
          "name": "",
          "type": "string"
        }
      ],
      "stateMutability": "view",
      "type": "function",
      "constant": true
    },
    {
      "inputs": [
        {
          "internalType": "string",
          "name": "_serialNumber",
          "type": "string"
        }
      ],
      "name": "viewTokenId",
      "outputs": [
        {
          "internalType": "uint256",
          "name": "",
          "type": "uint256"
        }
      ],
      "stateMutability": "view",
      "type": "function",
      "constant": true
    },
    {
      "inputs": [],
      "name": "getTotalSupply",
      "outputs": [
        {
          "internalType": "uint256",
          "name": "",
          "type": "uint256"
        }
      ],
      "stateMutability": "view",
      "type": "function",
      "constant": true
    },
    {
      "inputs": [],
      "name": "getTokenList",
      "outputs": [
        {
          "internalType": "uint256[]",
          "name": "",
          "type": "uint256[]"
        }
      ],
      "stateMutability": "view",
      "type": "function",
      "constant": true
    }
  ],
  "bytecode": "0x60806040523480156200001157600080fd5b506040516200420a3803806200420a833981810160405281019062000037919062000303565b8181816000908051906020019062000051929190620000b6565b5080600190805190602001906200006a929190620000b6565b50505033600660006101000a81548173ffffffffffffffffffffffffffffffffffffffff021916908373ffffffffffffffffffffffffffffffffffffffff1602179055505050620003ed565b828054620000c490620003b7565b90600052602060002090601f016020900481019282620000e8576000855562000134565b82601f106200010357805160ff191683800117855562000134565b8280016001018555821562000134579182015b828111156200013357825182559160200191906001019062000116565b5b50905062000143919062000147565b5090565b5b808211156200016257600081600090555060010162000148565b5090565b6000604051905090565b600080fd5b600080fd5b600080fd5b600080fd5b6000601f19601f8301169050919050565b7f4e487b7100000000000000000000000000000000000000000000000000000000600052604160045260246000fd5b620001cf8262000184565b810181811067ffffffffffffffff82111715620001f157620001f062000195565b5b80604052505050565b60006200020662000166565b9050620002148282620001c4565b919050565b600067ffffffffffffffff82111562000237576200023662000195565b5b620002428262000184565b9050602081019050919050565b60005b838110156200026f57808201518184015260208101905062000252565b838111156200027f576000848401525b50505050565b60006200029c620002968462000219565b620001fa565b905082815260208101848484011115620002bb57620002ba6200017f565b5b620002c88482856200024f565b509392505050565b600082601f830112620002e857620002e76200017a565b5b8151620002fa84826020860162000285565b91505092915050565b600080604083850312156200031d576200031c62000170565b5b600083015167ffffffffffffffff8111156200033e576200033d62000175565b5b6200034c85828601620002d0565b925050602083015167ffffffffffffffff81111562000370576200036f62000175565b5b6200037e85828601620002d0565b9150509250929050565b7f4e487b7100000000000000000000000000000000000000000000000000000000600052602260045260246000fd5b60006002820490506001821680620003d057607f821691505b60208210811415620003e757620003e662000388565b5b50919050565b613e0d80620003fd6000396000f3fe608060405234801561001057600080fd5b50600436106101585760003560e01c80636352211e116100c3578063c4e41b221161007c578063c4e41b22146103e7578063c87b56dd14610405578063d340c3c514610435578063e96fe90514610465578063e985e9c514610481578063fc1149ae146104b157610158565b80636352211e1461031557806370a082311461034557806395d89b41146103755780639907119014610393578063a22cb465146103af578063b88d4fde146103cb57610158565b8063207b850911610115578063207b85091461025757806323b872dd14610287578063273cbaa0146102a3578063393ed91a146102c157806342842e0e146102dd5780634f5e9376146102f957610158565b806301ffc9a71461015d57806306fdde031461018d578063081812fc146101ab578063095ea7b3146101db5780630fdcf877146101f75780631b868d0014610227575b600080fd5b61017760048036038101906101729190612811565b6104cd565b6040516101849190612859565b60405180910390f35b6101956105af565b6040516101a2919061290d565b60405180910390f35b6101c560048036038101906101c09190612965565b610641565b6040516101d291906129d3565b60405180910390f35b6101f560048036038101906101f09190612a1a565b6106c6565b005b610211600480360381019061020c9190612965565b6107de565b60405161021e9190612ad1565b60405180910390f35b610241600480360381019061023c9190612965565b61080b565b60405161024e919061290d565b60405180910390f35b610271600480360381019061026c9190612c21565b6108b3565b60405161027e9190612c79565b60405180910390f35b6102a1600480360381019061029c9190612c94565b6108db565b005b6102ab610abc565b6040516102b89190612da5565b60405180910390f35b6102db60048036038101906102d69190612965565b610b55565b005b6102f760048036038101906102f29190612c94565b610e05565b005b610313600480360381019061030e9190612dc7565b610e25565b005b61032f600480360381019061032a9190612965565b610f24565b60405161033c91906129d3565b60405180910390f35b61035f600480360381019061035a9190612e23565b610fd6565b60405161036c9190612c79565b60405180910390f35b61037d61108e565b60405161038a919061290d565b60405180910390f35b6103ad60048036038101906103a89190612e50565b611120565b005b6103c960048036038101906103c49190612f07565b61140a565b005b6103e560048036038101906103e09190612fe8565b611420565b005b6103ef611482565b6040516103fc9190612c79565b60405180910390f35b61041f600480360381019061041a9190612965565b61148c565b60405161042c919061290d565b60405180910390f35b61044f600480360381019061044a9190612965565b611533565b60405161045c919061290d565b60405180910390f35b61047f600480360381019061047a9190612965565b6115db565b005b61049b6004803603810190610496919061306b565b611770565b6040516104a89190612859565b60405180910390f35b6104cb60048036038101906104c69190612965565b611804565b005b60007f80ac58cd000000000000000000000000000000000000000000000000000000007bffffffffffffffffffffffffffffffffffffffffffffffffffffffff1916827bffffffffffffffffffffffffffffffffffffffffffffffffffffffff1916148061059857507f5b5e139f000000000000000000000000000000000000000000000000000000007bffffffffffffffffffffffffffffffffffffffffffffffffffffffff1916827bffffffffffffffffffffffffffffffffffffffffffffffffffffffff1916145b806105a857506105a7826119d9565b5b9050919050565b6060600080546105be906130da565b80601f01602080910402602001604051908101604052809291908181526020018280546105ea906130da565b80156106375780601f1061060c57610100808354040283529160200191610637565b820191906000526020600020905b81548152906001019060200180831161061a57829003601f168201915b5050505050905090565b600061064c82611a43565b61068b576040517f08c379a00000000000000000000000000000000000000000000000000000000081526004016106829061317e565b60405180910390fd5b6004600083815260200190815260200160002060009054906101000a900473ffffffffffffffffffffffffffffffffffffffff169050919050565b60006106d182610f24565b90508073ffffffffffffffffffffffffffffffffffffffff168373ffffffffffffffffffffffffffffffffffffffff161415610742576040517f08c379a000000000000000000000000000000000000000000000000000000000815260040161073990613210565b60405180910390fd5b8073ffffffffffffffffffffffffffffffffffffffff16610761611aaf565b73ffffffffffffffffffffffffffffffffffffffff161480610790575061078f8161078a611aaf565b611770565b5b6107cf576040517f08c379a00000000000000000000000000000000000000000000000000000000081526004016107c6906132a2565b60405180910390fd5b6107d98383611ab7565b505050565b60006008600083815260200190815260200160002060030160009054906101000a900460ff169050919050565b606060086000838152602001908152602001600020600101805461082e906130da565b80601f016020809104026020016040519081016040528092919081815260200182805461085a906130da565b80156108a75780601f1061087c576101008083540402835291602001916108a7565b820191906000526020600020905b81548152906001019060200180831161088a57829003601f168201915b50505050509050919050565b60006009826040516108c591906132fe565b9081526020016040518091039020549050919050565b80600660009054906101000a900473ffffffffffffffffffffffffffffffffffffffff1673ffffffffffffffffffffffffffffffffffffffff163373ffffffffffffffffffffffffffffffffffffffff16148061096b575061093c81610f24565b73ffffffffffffffffffffffffffffffffffffffff163373ffffffffffffffffffffffffffffffffffffffff16145b6109aa576040517f08c379a00000000000000000000000000000000000000000000000000000000081526004016109a190613361565b60405180910390fd5b81600060038111156109bf576109be612a5a565b5b6008600083815260200190815260200160002060030160009054906101000a900460ff1660038111156109f5576109f4612a5a565b5b14610a35576040517f08c379a0000000000000000000000000000000000000000000000000000000008152600401610a2c906133cd565b60405180910390fd5b610a40858585611b70565b60405180602001604052806000815250600860008581526020019081526020016000206002019080519060200190610a79929190612702565b507f5d439cf3a1f6215b41908e5b0b300f39679a3ff1cc010691c1d4ec4d0e2a4ebb858585604051610aad939291906133ed565b60405180910390a15050505050565b6060806000805b600754811015610b4c573373ffffffffffffffffffffffffffffffffffffffff16610aed82610f24565b73ffffffffffffffffffffffffffffffffffffffff161415610b395780838381518110610b1d57610b1c613424565b5b602002602001018181525050600182610b369190613482565b91505b8080610b44906134d8565b915050610ac3565b50819250505090565b600660009054906101000a900473ffffffffffffffffffffffffffffffffffffffff1673ffffffffffffffffffffffffffffffffffffffff163373ffffffffffffffffffffffffffffffffffffffff1614610be5576040517f08c379a0000000000000000000000000000000000000000000000000000000008152600401610bdc9061356d565b60405180910390fd5b8060006003811115610bfa57610bf9612a5a565b5b6008600083815260200190815260200160002060030160009054906101000a900460ff166003811115610c3057610c2f612a5a565b5b14610c70576040517f08c379a0000000000000000000000000000000000000000000000000000000008152600401610c67906133cd565b60405180910390fd5b60026003811115610c8457610c83612a5a565b5b6008600083815260200190815260200160002060030160009054906101000a900460ff166003811115610cba57610cb9612a5a565b5b148015610ceb5750620a8c006008600083815260200190815260200160002060040154610ce79190613482565b4210155b15610d705760036008600083815260200190815260200160002060030160006101000a81548160ff02191690836003811115610d2a57610d29612a5a565b5b0217905550610d3881611bd0565b7f16499e91d2432d8838e5dff38cb02f39fa94752ccff3f3f061b8faeee31308cb81604051610d679190612c79565b60405180910390a15b60026008600084815260200190815260200160002060030160006101000a81548160ff02191690836003811115610daa57610da9612a5a565b5b02179055504260086000848152602001908152602001600020600401819055507f1b0cd44f7de60590c135202a674c3e37546a8a53e701d13f36d5a4185c03313382604051610df99190612c79565b60405180910390a15050565b610e2083838360405180602001604052806000815250611420565b505050565b81600660009054906101000a900473ffffffffffffffffffffffffffffffffffffffff1673ffffffffffffffffffffffffffffffffffffffff163373ffffffffffffffffffffffffffffffffffffffff161480610eb55750610e8681610f24565b73ffffffffffffffffffffffffffffffffffffffff163373ffffffffffffffffffffffffffffffffffffffff16145b610ef4576040517f08c379a0000000000000000000000000000000000000000000000000000000008152600401610eeb90613361565b60405180910390fd5b81600860008581526020019081526020016000206002019080519060200190610f1e929190612702565b50505050565b6000806002600084815260200190815260200160002060009054906101000a900473ffffffffffffffffffffffffffffffffffffffff169050600073ffffffffffffffffffffffffffffffffffffffff168173ffffffffffffffffffffffffffffffffffffffff161415610fcd576040517f08c379a0000000000000000000000000000000000000000000000000000000008152600401610fc4906135ff565b60405180910390fd5b80915050919050565b60008073ffffffffffffffffffffffffffffffffffffffff168273ffffffffffffffffffffffffffffffffffffffff161415611047576040517f08c379a000000000000000000000000000000000000000000000000000000000815260040161103e90613691565b60405180910390fd5b600360008373ffffffffffffffffffffffffffffffffffffffff1673ffffffffffffffffffffffffffffffffffffffff168152602001908152602001600020549050919050565b60606001805461109d906130da565b80601f01602080910402602001604051908101604052809291908181526020018280546110c9906130da565b80156111165780601f106110eb57610100808354040283529160200191611116565b820191906000526020600020905b8154815290600101906020018083116110f957829003601f168201915b5050505050905090565b600660009054906101000a900473ffffffffffffffffffffffffffffffffffffffff1673ffffffffffffffffffffffffffffffffffffffff163373ffffffffffffffffffffffffffffffffffffffff16146111b0576040517f08c379a00000000000000000000000000000000000000000000000000000000081526004016111a79061356d565b60405180910390fd5b6111bc83600754611ced565b60006040518060c00160405280848152602001838152602001604051806020016040528060008152508152602001600060038111156111fe576111fd612a5a565b5b81526020014281526020016007548152509050600a8190806001815401808255809150506001900390600052602060002090600602016000909190919091506000820151816000019080519060200190611259929190612702565b506020820151816001019080519060200190611276929190612702565b506040820151816002019080519060200190611293929190612702565b5060608201518160030160006101000a81548160ff021916908360038111156112bf576112be612a5a565b5b02179055506080820151816004015560a08201518160050155505080600860006007548152602001908152602001600020600082015181600001908051906020019061130c929190612702565b506020820151816001019080519060200190611329929190612702565b506040820151816002019080519060200190611346929190612702565b5060608201518160030160006101000a81548160ff0219169083600381111561137257611371612a5a565b5b02179055506080820151816004015560a08201518160050155905050600760008154809291906113a1906134d8565b919050556009846040516113b591906132fe565b9081526020016040518091039020819055507f611b2fed7af3df9474d8f5e903e1010a44fc43fded2f4cde0cc65a1c93e7798284846007546040516113fc939291906136b1565b60405180910390a150505050565b61141c611415611aaf565b8383611ec7565b5050565b61143161142b611aaf565b83612034565b611470576040517f08c379a000000000000000000000000000000000000000000000000000000000815260040161146790613761565b60405180910390fd5b61147c84848484612112565b50505050565b6000600754905090565b606061149782611a43565b6114d6576040517f08c379a00000000000000000000000000000000000000000000000000000000081526004016114cd906137f3565b60405180910390fd5b60006114e061216e565b90506000815111611500576040518060200160405280600081525061152b565b8061150a84612185565b60405160200161151b929190613813565b6040516020818303038152906040525b915050919050565b6060600860008381526020019081526020016000206000018054611556906130da565b80601f0160208091040260200160405190810160405280929190818152602001828054611582906130da565b80156115cf5780601f106115a4576101008083540402835291602001916115cf565b820191906000526020600020905b8154815290600101906020018083116115b257829003601f168201915b50505050509050919050565b600660009054906101000a900473ffffffffffffffffffffffffffffffffffffffff1673ffffffffffffffffffffffffffffffffffffffff163373ffffffffffffffffffffffffffffffffffffffff161461166b576040517f08c379a00000000000000000000000000000000000000000000000000000000081526004016116629061356d565b60405180910390fd5b8060038081111561167f5761167e612a5a565b5b6008600083815260200190815260200160002060030160009054906101000a900460ff1660038111156116b5576116b4612a5a565b5b14156116f6576040517f08c379a00000000000000000000000000000000000000000000000000000000081526004016116ed90613883565b60405180910390fd5b60006008600084815260200190815260200160002060030160006101000a81548160ff021916908360038111156117305761172f612a5a565b5b02179055507f6f1e384d0c04e4517b853b567c90c9a4001203d9ffa8d7a0e6b74a526411f25d826040516117649190612c79565b60405180910390a15050565b6000600560008473ffffffffffffffffffffffffffffffffffffffff1673ffffffffffffffffffffffffffffffffffffffff16815260200190815260200160002060008373ffffffffffffffffffffffffffffffffffffffff1673ffffffffffffffffffffffffffffffffffffffff16815260200190815260200160002060009054906101000a900460ff16905092915050565b80600660009054906101000a900473ffffffffffffffffffffffffffffffffffffffff1673ffffffffffffffffffffffffffffffffffffffff163373ffffffffffffffffffffffffffffffffffffffff161480611894575061186581610f24565b73ffffffffffffffffffffffffffffffffffffffff163373ffffffffffffffffffffffffffffffffffffffff16145b6118d3576040517f08c379a00000000000000000000000000000000000000000000000000000000081526004016118ca90613361565b60405180910390fd5b81600060038111156118e8576118e7612a5a565b5b6008600083815260200190815260200160002060030160009054906101000a900460ff16600381111561191e5761191d612a5a565b5b1461195e576040517f08c379a0000000000000000000000000000000000000000000000000000000008152600401611955906133cd565b60405180910390fd5b60016008600085815260200190815260200160002060030160006101000a81548160ff0219169083600381111561199857611997612a5a565b5b02179055507f8009a67fcb765e991aad86deaf05be1aa2eb10725a1dc516f5858c78cf884595836040516119cc9190612c79565b60405180910390a1505050565b60007f01ffc9a7000000000000000000000000000000000000000000000000000000007bffffffffffffffffffffffffffffffffffffffffffffffffffffffff1916827bffffffffffffffffffffffffffffffffffffffffffffffffffffffff1916149050919050565b60008073ffffffffffffffffffffffffffffffffffffffff166002600084815260200190815260200160002060009054906101000a900473ffffffffffffffffffffffffffffffffffffffff1673ffffffffffffffffffffffffffffffffffffffff1614159050919050565b600033905090565b816004600083815260200190815260200160002060006101000a81548173ffffffffffffffffffffffffffffffffffffffff021916908373ffffffffffffffffffffffffffffffffffffffff160217905550808273ffffffffffffffffffffffffffffffffffffffff16611b2a83610f24565b73ffffffffffffffffffffffffffffffffffffffff167f8c5be1e5ebec7d5bd14f71427d1e84f3dd0314c0f7b2291e5b200ac8c7c3b92560405160405180910390a45050565b611b81611b7b611aaf565b82612034565b611bc0576040517f08c379a0000000000000000000000000000000000000000000000000000000008152600401611bb790613761565b60405180910390fd5b611bcb8383836122e6565b505050565b6000611bdb82610f24565b9050611be98160008461254d565b611bf4600083611ab7565b6001600360008373ffffffffffffffffffffffffffffffffffffffff1673ffffffffffffffffffffffffffffffffffffffff1681526020019081526020016000206000828254611c4491906138a3565b925050819055506002600083815260200190815260200160002060006101000a81549073ffffffffffffffffffffffffffffffffffffffff021916905581600073ffffffffffffffffffffffffffffffffffffffff168273ffffffffffffffffffffffffffffffffffffffff167fddf252ad1be2c89b69c2b068fc378daa952ba7f163c4a11628f55a4df523b3ef60405160405180910390a4611ce981600084612552565b5050565b600073ffffffffffffffffffffffffffffffffffffffff168273ffffffffffffffffffffffffffffffffffffffff161415611d5d576040517f08c379a0000000000000000000000000000000000000000000000000000000008152600401611d5490613923565b60405180910390fd5b611d6681611a43565b15611da6576040517f08c379a0000000000000000000000000000000000000000000000000000000008152600401611d9d9061398f565b60405180910390fd5b611db26000838361254d565b6001600360008473ffffffffffffffffffffffffffffffffffffffff1673ffffffffffffffffffffffffffffffffffffffff1681526020019081526020016000206000828254611e029190613482565b92505081905550816002600083815260200190815260200160002060006101000a81548173ffffffffffffffffffffffffffffffffffffffff021916908373ffffffffffffffffffffffffffffffffffffffff160217905550808273ffffffffffffffffffffffffffffffffffffffff16600073ffffffffffffffffffffffffffffffffffffffff167fddf252ad1be2c89b69c2b068fc378daa952ba7f163c4a11628f55a4df523b3ef60405160405180910390a4611ec360008383612552565b5050565b8173ffffffffffffffffffffffffffffffffffffffff168373ffffffffffffffffffffffffffffffffffffffff161415611f36576040517f08c379a0000000000000000000000000000000000000000000000000000000008152600401611f2d906139fb565b60405180910390fd5b80600560008573ffffffffffffffffffffffffffffffffffffffff1673ffffffffffffffffffffffffffffffffffffffff16815260200190815260200160002060008473ffffffffffffffffffffffffffffffffffffffff1673ffffffffffffffffffffffffffffffffffffffff16815260200190815260200160002060006101000a81548160ff0219169083151502179055508173ffffffffffffffffffffffffffffffffffffffff168373ffffffffffffffffffffffffffffffffffffffff167f17307eab39ab6107e8899845ad3d59bd9653f200f220920489ca2b5937696c31836040516120279190612859565b60405180910390a3505050565b600061203f82611a43565b61207e576040517f08c379a000000000000000000000000000000000000000000000000000000000815260040161207590613a8d565b60405180910390fd5b600061208983610f24565b90508073ffffffffffffffffffffffffffffffffffffffff168473ffffffffffffffffffffffffffffffffffffffff1614806120f857508373ffffffffffffffffffffffffffffffffffffffff166120e084610641565b73ffffffffffffffffffffffffffffffffffffffff16145b8061210957506121088185611770565b5b91505092915050565b61211d8484846122e6565b61212984848484612557565b612168576040517f08c379a000000000000000000000000000000000000000000000000000000000815260040161215f90613b1f565b60405180910390fd5b50505050565b606060405180602001604052806000815250905090565b606060008214156121cd576040518060400160405280600181526020017f300000000000000000000000000000000000000000000000000000000000000081525090506122e1565b600082905060005b600082146121ff5780806121e8906134d8565b915050600a826121f89190613b6e565b91506121d5565b60008167ffffffffffffffff81111561221b5761221a612af6565b5b6040519080825280601f01601f19166020018201604052801561224d5781602001600182028036833780820191505090505b5090505b600085146122da5760018261226691906138a3565b9150600a856122759190613b9f565b60306122819190613482565b60f81b81838151811061229757612296613424565b5b60200101907effffffffffffffffffffffffffffffffffffffffffffffffffffffffffffff1916908160001a905350600a856122d39190613b6e565b9450612251565b8093505050505b919050565b8273ffffffffffffffffffffffffffffffffffffffff1661230682610f24565b73ffffffffffffffffffffffffffffffffffffffff161461235c576040517f08c379a000000000000000000000000000000000000000000000000000000000815260040161235390613c42565b60405180910390fd5b600073ffffffffffffffffffffffffffffffffffffffff168273ffffffffffffffffffffffffffffffffffffffff1614156123cc576040517f08c379a00000000000000000000000000000000000000000000000000000000081526004016123c390613cd4565b60405180910390fd5b6123d783838361254d565b6123e2600082611ab7565b6001600360008573ffffffffffffffffffffffffffffffffffffffff1673ffffffffffffffffffffffffffffffffffffffff168152602001908152602001600020600082825461243291906138a3565b925050819055506001600360008473ffffffffffffffffffffffffffffffffffffffff1673ffffffffffffffffffffffffffffffffffffffff16815260200190815260200160002060008282546124899190613482565b92505081905550816002600083815260200190815260200160002060006101000a81548173ffffffffffffffffffffffffffffffffffffffff021916908373ffffffffffffffffffffffffffffffffffffffff160217905550808273ffffffffffffffffffffffffffffffffffffffff168473ffffffffffffffffffffffffffffffffffffffff167fddf252ad1be2c89b69c2b068fc378daa952ba7f163c4a11628f55a4df523b3ef60405160405180910390a4612548838383612552565b505050565b505050565b505050565b60006125788473ffffffffffffffffffffffffffffffffffffffff166126df565b156126d2578373ffffffffffffffffffffffffffffffffffffffff1663150b7a026125a1611aaf565b8786866040518563ffffffff1660e01b81526004016125c39493929190613d49565b6020604051808303816000875af19250505080156125ff57506040513d601f19601f820116820180604052508101906125fc9190613daa565b60015b612682573d806000811461262f576040519150601f19603f3d011682016040523d82523d6000602084013e612634565b606091505b5060008151141561267a576040517f08c379a000000000000000000000000000000000000000000000000000000000815260040161267190613b1f565b60405180910390fd5b805181602001fd5b63150b7a0260e01b7bffffffffffffffffffffffffffffffffffffffffffffffffffffffff1916817bffffffffffffffffffffffffffffffffffffffffffffffffffffffff1916149150506126d7565b600190505b949350505050565b6000808273ffffffffffffffffffffffffffffffffffffffff163b119050919050565b82805461270e906130da565b90600052602060002090601f0160209004810192826127305760008555612777565b82601f1061274957805160ff1916838001178555612777565b82800160010185558215612777579182015b8281111561277657825182559160200191906001019061275b565b5b5090506127849190612788565b5090565b5b808211156127a1576000816000905550600101612789565b5090565b6000604051905090565b600080fd5b600080fd5b60007fffffffff0000000000000000000000000000000000000000000000000000000082169050919050565b6127ee816127b9565b81146127f957600080fd5b50565b60008135905061280b816127e5565b92915050565b600060208284031215612827576128266127af565b5b6000612835848285016127fc565b91505092915050565b60008115159050919050565b6128538161283e565b82525050565b600060208201905061286e600083018461284a565b92915050565b600081519050919050565b600082825260208201905092915050565b60005b838110156128ae578082015181840152602081019050612893565b838111156128bd576000848401525b50505050565b6000601f19601f8301169050919050565b60006128df82612874565b6128e9818561287f565b93506128f9818560208601612890565b612902816128c3565b840191505092915050565b6000602082019050818103600083015261292781846128d4565b905092915050565b6000819050919050565b6129428161292f565b811461294d57600080fd5b50565b60008135905061295f81612939565b92915050565b60006020828403121561297b5761297a6127af565b5b600061298984828501612950565b91505092915050565b600073ffffffffffffffffffffffffffffffffffffffff82169050919050565b60006129bd82612992565b9050919050565b6129cd816129b2565b82525050565b60006020820190506129e860008301846129c4565b92915050565b6129f7816129b2565b8114612a0257600080fd5b50565b600081359050612a14816129ee565b92915050565b60008060408385031215612a3157612a306127af565b5b6000612a3f85828601612a05565b9250506020612a5085828601612950565b9150509250929050565b7f4e487b7100000000000000000000000000000000000000000000000000000000600052602160045260246000fd5b60048110612a9a57612a99612a5a565b5b50565b6000819050612aab82612a89565b919050565b6000612abb82612a9d565b9050919050565b612acb81612ab0565b82525050565b6000602082019050612ae66000830184612ac2565b92915050565b600080fd5b600080fd5b7f4e487b7100000000000000000000000000000000000000000000000000000000600052604160045260246000fd5b612b2e826128c3565b810181811067ffffffffffffffff82111715612b4d57612b4c612af6565b5b80604052505050565b6000612b606127a5565b9050612b6c8282612b25565b919050565b600067ffffffffffffffff821115612b8c57612b8b612af6565b5b612b95826128c3565b9050602081019050919050565b82818337600083830152505050565b6000612bc4612bbf84612b71565b612b56565b905082815260208101848484011115612be057612bdf612af1565b5b612beb848285612ba2565b509392505050565b600082601f830112612c0857612c07612aec565b5b8135612c18848260208601612bb1565b91505092915050565b600060208284031215612c3757612c366127af565b5b600082013567ffffffffffffffff811115612c5557612c546127b4565b5b612c6184828501612bf3565b91505092915050565b612c738161292f565b82525050565b6000602082019050612c8e6000830184612c6a565b92915050565b600080600060608486031215612cad57612cac6127af565b5b6000612cbb86828701612a05565b9350506020612ccc86828701612a05565b9250506040612cdd86828701612950565b9150509250925092565b600081519050919050565b600082825260208201905092915050565b6000819050602082019050919050565b612d1c8161292f565b82525050565b6000612d2e8383612d13565b60208301905092915050565b6000602082019050919050565b6000612d5282612ce7565b612d5c8185612cf2565b9350612d6783612d03565b8060005b83811015612d98578151612d7f8882612d22565b9750612d8a83612d3a565b925050600181019050612d6b565b5085935050505092915050565b60006020820190508181036000830152612dbf8184612d47565b905092915050565b60008060408385031215612dde57612ddd6127af565b5b6000612dec85828601612950565b925050602083013567ffffffffffffffff811115612e0d57612e0c6127b4565b5b612e1985828601612bf3565b9150509250929050565b600060208284031215612e3957612e386127af565b5b6000612e4784828501612a05565b91505092915050565b600080600060608486031215612e6957612e686127af565b5b6000612e7786828701612a05565b935050602084013567ffffffffffffffff811115612e9857612e976127b4565b5b612ea486828701612bf3565b925050604084013567ffffffffffffffff811115612ec557612ec46127b4565b5b612ed186828701612bf3565b9150509250925092565b612ee48161283e565b8114612eef57600080fd5b50565b600081359050612f0181612edb565b92915050565b60008060408385031215612f1e57612f1d6127af565b5b6000612f2c85828601612a05565b9250506020612f3d85828601612ef2565b9150509250929050565b600067ffffffffffffffff821115612f6257612f61612af6565b5b612f6b826128c3565b9050602081019050919050565b6000612f8b612f8684612f47565b612b56565b905082815260208101848484011115612fa757612fa6612af1565b5b612fb2848285612ba2565b509392505050565b600082601f830112612fcf57612fce612aec565b5b8135612fdf848260208601612f78565b91505092915050565b60008060008060808587031215613002576130016127af565b5b600061301087828801612a05565b945050602061302187828801612a05565b935050604061303287828801612950565b925050606085013567ffffffffffffffff811115613053576130526127b4565b5b61305f87828801612fba565b91505092959194509250565b60008060408385031215613082576130816127af565b5b600061309085828601612a05565b92505060206130a185828601612a05565b9150509250929050565b7f4e487b7100000000000000000000000000000000000000000000000000000000600052602260045260246000fd5b600060028204905060018216806130f257607f821691505b60208210811415613106576131056130ab565b5b50919050565b7f4552433732313a20617070726f76656420717565727920666f72206e6f6e657860008201527f697374656e7420746f6b656e0000000000000000000000000000000000000000602082015250565b6000613168602c8361287f565b91506131738261310c565b604082019050919050565b600060208201905081810360008301526131978161315b565b9050919050565b7f4552433732313a20617070726f76616c20746f2063757272656e74206f776e6560008201527f7200000000000000000000000000000000000000000000000000000000000000602082015250565b60006131fa60218361287f565b91506132058261319e565b604082019050919050565b60006020820190508181036000830152613229816131ed565b9050919050565b7f4552433732313a20617070726f76652063616c6c6572206973206e6f74206f7760008201527f6e6572206e6f7220617070726f76656420666f7220616c6c0000000000000000602082015250565b600061328c60388361287f565b915061329782613230565b604082019050919050565b600060208201905081810360008301526132bb8161327f565b9050919050565b600081905092915050565b60006132d882612874565b6132e281856132c2565b93506132f2818560208601612890565b80840191505092915050565b600061330a82846132cd565b915081905092915050565b7f41646d696e206f72206f776e6572206f6e6c792066756e6374696f6e00000000600082015250565b600061334b601c8361287f565b915061335682613315565b602082019050919050565b6000602082019050818103600083015261337a8161333e565b9050919050565b7f546f6b656e2069732061626e6f726d616c000000000000000000000000000000600082015250565b60006133b760118361287f565b91506133c282613381565b602082019050919050565b600060208201905081810360008301526133e6816133aa565b9050919050565b600060608201905061340260008301866129c4565b61340f60208301856129c4565b61341c6040830184612c6a565b949350505050565b7f4e487b7100000000000000000000000000000000000000000000000000000000600052603260045260246000fd5b7f4e487b7100000000000000000000000000000000000000000000000000000000600052601160045260246000fd5b600061348d8261292f565b91506134988361292f565b9250827fffffffffffffffffffffffffffffffffffffffffffffffffffffffffffffffff038211156134cd576134cc613453565b5b828201905092915050565b60006134e38261292f565b91507fffffffffffffffffffffffffffffffffffffffffffffffffffffffffffffffff82141561351657613515613453565b5b600182019050919050565b7f41646d696e206f6e6c792066756e6374696f6e00000000000000000000000000600082015250565b600061355760138361287f565b915061356282613521565b602082019050919050565b600060208201905081810360008301526135868161354a565b9050919050565b7f4552433732313a206f776e657220717565727920666f72206e6f6e657869737460008201527f656e7420746f6b656e0000000000000000000000000000000000000000000000602082015250565b60006135e960298361287f565b91506135f48261358d565b604082019050919050565b60006020820190508181036000830152613618816135dc565b9050919050565b7f4552433732313a2062616c616e636520717565727920666f7220746865207a6560008201527f726f206164647265737300000000000000000000000000000000000000000000602082015250565b600061367b602a8361287f565b91506136868261361f565b604082019050919050565b600060208201905081810360008301526136aa8161366e565b9050919050565b60006060820190506136c660008301866129c4565b81810360208301526136d881856128d4565b90506136e76040830184612c6a565b949350505050565b7f4552433732313a207472616e736665722063616c6c6572206973206e6f74206f60008201527f776e6572206e6f7220617070726f766564000000000000000000000000000000602082015250565b600061374b60318361287f565b9150613756826136ef565b604082019050919050565b6000602082019050818103600083015261377a8161373e565b9050919050565b7f4552433732314d657461646174613a2055524920717565727920666f72206e6f60008201527f6e6578697374656e7420746f6b656e0000000000000000000000000000000000602082015250565b60006137dd602f8361287f565b91506137e882613781565b604082019050919050565b6000602082019050818103600083015261380c816137d0565b9050919050565b600061381f82856132cd565b915061382b82846132cd565b91508190509392505050565b7f546f6b656e20697320696e76616c69646174656420616c726561647900000000600082015250565b600061386d601c8361287f565b915061387882613837565b602082019050919050565b6000602082019050818103600083015261389c81613860565b9050919050565b60006138ae8261292f565b91506138b98361292f565b9250828210156138cc576138cb613453565b5b828203905092915050565b7f4552433732313a206d696e7420746f20746865207a65726f2061646472657373600082015250565b600061390d60208361287f565b9150613918826138d7565b602082019050919050565b6000602082019050818103600083015261393c81613900565b9050919050565b7f4552433732313a20746f6b656e20616c7265616479206d696e74656400000000600082015250565b6000613979601c8361287f565b915061398482613943565b602082019050919050565b600060208201905081810360008301526139a88161396c565b9050919050565b7f4552433732313a20617070726f766520746f2063616c6c657200000000000000600082015250565b60006139e560198361287f565b91506139f0826139af565b602082019050919050565b60006020820190508181036000830152613a14816139d8565b9050919050565b7f4552433732313a206f70657261746f7220717565727920666f72206e6f6e657860008201527f697374656e7420746f6b656e0000000000000000000000000000000000000000602082015250565b6000613a77602c8361287f565b9150613a8282613a1b565b604082019050919050565b60006020820190508181036000830152613aa681613a6a565b9050919050565b7f4552433732313a207472616e7366657220746f206e6f6e20455243373231526560008201527f63656976657220696d706c656d656e7465720000000000000000000000000000602082015250565b6000613b0960328361287f565b9150613b1482613aad565b604082019050919050565b60006020820190508181036000830152613b3881613afc565b9050919050565b7f4e487b7100000000000000000000000000000000000000000000000000000000600052601260045260246000fd5b6000613b798261292f565b9150613b848361292f565b925082613b9457613b93613b3f565b5b828204905092915050565b6000613baa8261292f565b9150613bb58361292f565b925082613bc557613bc4613b3f565b5b828206905092915050565b7f4552433732313a207472616e736665722066726f6d20696e636f72726563742060008201527f6f776e6572000000000000000000000000000000000000000000000000000000602082015250565b6000613c2c60258361287f565b9150613c3782613bd0565b604082019050919050565b60006020820190508181036000830152613c5b81613c1f565b9050919050565b7f4552433732313a207472616e7366657220746f20746865207a65726f2061646460008201527f7265737300000000000000000000000000000000000000000000000000000000602082015250565b6000613cbe60248361287f565b9150613cc982613c62565b604082019050919050565b60006020820190508181036000830152613ced81613cb1565b9050919050565b600081519050919050565b600082825260208201905092915050565b6000613d1b82613cf4565b613d258185613cff565b9350613d35818560208601612890565b613d3e816128c3565b840191505092915050565b6000608082019050613d5e60008301876129c4565b613d6b60208301866129c4565b613d786040830185612c6a565b8181036060830152613d8a8184613d10565b905095945050505050565b600081519050613da4816127e5565b92915050565b600060208284031215613dc057613dbf6127af565b5b6000613dce84828501613d95565b9150509291505056fea2646970667358221220db457a19eda3ff51bfcf8961994889bc2f3f87a8cc81e07a1c612c7f5eb46cab64736f6c634300080b0033",
  "immutableReferences": {},
  "source": "//SPDX-License-Identifier: MIT\npragma solidity ^0.8.11;\nimport \"@openzeppelin/contracts/token/ERC721/ERC721.sol\";\n\ncontract LuxChain is ERC721 {\n    address _owner;\n    uint256 _supply;\n\n    enum stages{\n        normal,\n        lost,\n        invalidating,\n        invalidate\n    }\n\n    \n    mapping(uint256 => Token) tokens;\n    mapping(string => uint256) serialNumbers;\n\n    event mintToken(address _to, string _serNumber, uint256 tokenId);\n    event transferEvent(address _from, address _to, uint256 _tokenId);\n    event invalidToken(uint256 _tokenId);\n    event tokendestory(uint256 _tokenId);\n    event tokenLost(uint256 _tokenId);\n    event tokenrestored(uint256 _tokenId);\n\n    constructor(string memory _name, string memory _symbol)\n        ERC721(_name, _symbol)\n    {\n        _owner = msg.sender;\n    }\n\n    struct Token {\n        string serialNumber;\n        string name;\n        string information;\n        stages state;\n        uint256 time;\n        uint256 tokenId;\n    }\n    Token[] tokenlist;\n\n    modifier stateoftoken(uint256 tokenId) {\n        require(tokens[tokenId].state == stages.normal, \"Token is abnormal\");\n        _;\n    }\n\n    modifier validToken(uint256 tokenId) {\n        require(tokens[tokenId].state != stages.invalidate, \"Token is invalidated already\");\n        _;\n    }\n\n    modifier timedDestory(uint256 _tokenId) {\n        require(tokens[_tokenId].state == stages.normal, \"Token is abnormal\");\n        if (tokens[_tokenId].state == stages.invalidating && block.timestamp >= tokens[_tokenId].time + 8 days) {\n            tokens[_tokenId].state = stages.invalidate;\n            super._burn(_tokenId);\n            emit tokendestory(_tokenId);\n        }\n        _;\n    }\n\n    modifier adminOnly {\n        require(msg.sender == _owner, \"Admin only function\");\n        _;\n    }\n\n    modifier adminOrOwnerOnly(uint256 _tokenId) {\n        require(msg.sender == _owner || msg.sender == ownerOf(_tokenId), \"Admin or owner only function\");\n        _;\n    }\n\n    // When a product is sold, an accompanying token created\n    function mint(address _to, string memory _serialNumber, string memory _name) public adminOnly {\n        super._mint(_to, _supply);\n        Token memory newToken = Token(_serialNumber, _name, '', stages.normal, block.timestamp, _supply);\n        tokenlist.push(newToken);//\n        tokens[_supply] = newToken;\n        serialNumbers[_serialNumber] = _supply++;\n        emit mintToken(_to, _serialNumber, _supply);\n    }\n\n    function invalidateToken(uint256 _tokenId) public adminOnly timedDestory(_tokenId){\n        tokens[_tokenId].state = stages.invalidating;\n        tokens[_tokenId].time = block.timestamp;\n        emit invalidToken(_tokenId);\n    }\n\n    function reportlost(uint256 _tokenId) public adminOrOwnerOnly(_tokenId) stateoftoken(_tokenId) {\n        tokens[_tokenId].state = stages.lost;\n        emit tokenLost(_tokenId);\n    }\n\n    function restoreToken(uint256 _tokenId) public adminOnly validToken(_tokenId) {\n        tokens[_tokenId].state = stages.normal;\n        emit tokenrestored(_tokenId);\n    }\n\n    function checkState(uint256 _tokenId) public view returns(stages) {\n        return tokens[_tokenId].state;\n    }\n\n    function transferFrom(address _from, address _to, uint256 _tokenId) public override adminOrOwnerOnly(_tokenId) stateoftoken(_tokenId) {\n        super.transferFrom(_from, _to, _tokenId);\n        tokens[_tokenId].information = '';\n        emit transferEvent(_from, _to, _tokenId);\n    }\n\n    function updateInformation(uint256 _tokenId, string memory _information) public adminOrOwnerOnly(_tokenId) {\n        tokens[_tokenId].information = _information;\n    }\n\n    function viewSerialNumber(uint256 _tokenId)\n        public\n        view\n        returns (string memory)\n    {\n        return tokens[_tokenId].serialNumber;\n    }\n\n    function viewName(uint256 _tokenId) public view returns (string memory) {\n        return tokens[_tokenId].name;\n    }\n\n    function viewTokenId(string memory _serialNumber)\n        public\n        view\n        returns (uint256)\n    {\n        return serialNumbers[_serialNumber];\n    }\n\n    function getTotalSupply() public view returns (uint256) {\n        return _supply;\n    }\n\n    function getTokenList() external view returns (uint256[] memory) {\n        uint256[] memory usertokens;\n        uint count = 0;\n        for (uint i = 0; i < _supply; i++) {\n            if (super.ownerOf(i) == msg.sender) {\n                usertokens[count] = i;\n                count += 1;\n            }\n        }\n        return usertokens;\n    }\n\n    /*\n    function ownerOf(uint256 tokenId) public view virtual override returns (address) {\n        address owner = _owners[tokenId];\n        require(owner != address(0), \"ERC721: owner query for nonexistent token\");\n        return owner;\n    }\n    */\n}\n",
  "sourcePath": "/Users/lokki/Documents/GitHub/dApp-Project-LuxChain/contracts/LuxChain.sol",
  "compiler": {
    "name": "solc",
    "version": "0.8.11+commit.d7f03943.Emscripten.clang"
  },
  "schemaVersion": "3.4.4",
  "updatedAt": "2022-04-13T06:58:19.644Z",
  "networkType": "ethereum",
  "devdoc": {
    "kind": "dev",
    "methods": {
      "approve(address,uint256)": {
        "details": "See {IERC721-approve}."
      },
      "balanceOf(address)": {
        "details": "See {IERC721-balanceOf}."
      },
      "getApproved(uint256)": {
        "details": "See {IERC721-getApproved}."
      },
      "isApprovedForAll(address,address)": {
        "details": "See {IERC721-isApprovedForAll}."
      },
      "name()": {
        "details": "See {IERC721Metadata-name}."
      },
      "ownerOf(uint256)": {
        "details": "See {IERC721-ownerOf}."
      },
      "safeTransferFrom(address,address,uint256)": {
        "details": "See {IERC721-safeTransferFrom}."
      },
      "safeTransferFrom(address,address,uint256,bytes)": {
        "details": "See {IERC721-safeTransferFrom}."
      },
      "setApprovalForAll(address,bool)": {
        "details": "See {IERC721-setApprovalForAll}."
      },
      "supportsInterface(bytes4)": {
        "details": "See {IERC165-supportsInterface}."
      },
      "symbol()": {
        "details": "See {IERC721Metadata-symbol}."
      },
      "tokenURI(uint256)": {
        "details": "See {IERC721Metadata-tokenURI}."
      }
    },
    "version": 1
  },
  "userdoc": {
    "kind": "user",
    "methods": {},
    "version": 1
  }
}