{
  "contractName": "LuxChain",
  "abi": [
    {
      "inputs": [
        {
          "internalType": "string",
          "name": "_name",
          "type": "string"
        },
        {
          "internalType": "string",
          "name": "_symbol",
          "type": "string"
        }
      ],
      "stateMutability": "nonpayable",
      "type": "constructor"
    },
    {
      "anonymous": false,
      "inputs": [
        {
          "indexed": true,
          "internalType": "address",
          "name": "owner",
          "type": "address"
        },
        {
          "indexed": true,
          "internalType": "address",
          "name": "approved",
          "type": "address"
        },
        {
          "indexed": true,
          "internalType": "uint256",
          "name": "tokenId",
          "type": "uint256"
        }
      ],
      "name": "Approval",
      "type": "event"
    },
    {
      "anonymous": false,
      "inputs": [
        {
          "indexed": true,
          "internalType": "address",
          "name": "owner",
          "type": "address"
        },
        {
          "indexed": true,
          "internalType": "address",
          "name": "operator",
          "type": "address"
        },
        {
          "indexed": false,
          "internalType": "bool",
          "name": "approved",
          "type": "bool"
        }
      ],
      "name": "ApprovalForAll",
      "type": "event"
    },
    {
      "anonymous": false,
      "inputs": [
        {
          "indexed": true,
          "internalType": "address",
          "name": "from",
          "type": "address"
        },
        {
          "indexed": true,
          "internalType": "address",
          "name": "to",
          "type": "address"
        },
        {
          "indexed": true,
          "internalType": "uint256",
          "name": "tokenId",
          "type": "uint256"
        }
      ],
      "name": "Transfer",
      "type": "event"
    },
    {
      "anonymous": false,
      "inputs": [
        {
          "indexed": false,
          "internalType": "uint256",
          "name": "_tokenId",
          "type": "uint256"
        }
      ],
      "name": "invalidToken",
      "type": "event"
    },
    {
      "anonymous": false,
      "inputs": [
        {
          "indexed": false,
          "internalType": "address",
          "name": "_to",
          "type": "address"
        },
        {
          "indexed": false,
          "internalType": "string",
          "name": "_serNumber",
          "type": "string"
        },
        {
          "indexed": false,
          "internalType": "uint256",
          "name": "tokenId",
          "type": "uint256"
        }
      ],
      "name": "mintToken",
      "type": "event"
    },
    {
      "anonymous": false,
      "inputs": [
        {
          "indexed": false,
          "internalType": "uint256",
          "name": "_tokenId",
          "type": "uint256"
        }
      ],
      "name": "tokenLost",
      "type": "event"
    },
    {
      "anonymous": false,
      "inputs": [
        {
          "indexed": false,
          "internalType": "uint256",
          "name": "_tokenId",
          "type": "uint256"
        }
      ],
      "name": "tokendestory",
      "type": "event"
    },
    {
      "anonymous": false,
      "inputs": [
        {
          "indexed": false,
          "internalType": "uint256",
          "name": "_tokenId",
          "type": "uint256"
        }
      ],
      "name": "tokenrestored",
      "type": "event"
    },
    {
      "anonymous": false,
      "inputs": [
        {
          "indexed": false,
          "internalType": "address",
          "name": "_from",
          "type": "address"
        },
        {
          "indexed": false,
          "internalType": "address",
          "name": "_to",
          "type": "address"
        },
        {
          "indexed": false,
          "internalType": "uint256",
          "name": "_tokenId",
          "type": "uint256"
        }
      ],
      "name": "transferEvent",
      "type": "event"
    },
    {
      "inputs": [
        {
          "internalType": "address",
          "name": "to",
          "type": "address"
        },
        {
          "internalType": "uint256",
          "name": "tokenId",
          "type": "uint256"
        }
      ],
      "name": "approve",
      "outputs": [],
      "stateMutability": "nonpayable",
      "type": "function"
    },
    {
      "inputs": [
        {
          "internalType": "address",
          "name": "owner",
          "type": "address"
        }
      ],
      "name": "balanceOf",
      "outputs": [
        {
          "internalType": "uint256",
          "name": "",
          "type": "uint256"
        }
      ],
      "stateMutability": "view",
      "type": "function",
      "constant": true
    },
    {
      "inputs": [
        {
          "internalType": "uint256",
          "name": "tokenId",
          "type": "uint256"
        }
      ],
      "name": "getApproved",
      "outputs": [
        {
          "internalType": "address",
          "name": "",
          "type": "address"
        }
      ],
      "stateMutability": "view",
      "type": "function",
      "constant": true
    },
    {
      "inputs": [
        {
          "internalType": "address",
          "name": "owner",
          "type": "address"
        },
        {
          "internalType": "address",
          "name": "operator",
          "type": "address"
        }
      ],
      "name": "isApprovedForAll",
      "outputs": [
        {
          "internalType": "bool",
          "name": "",
          "type": "bool"
        }
      ],
      "stateMutability": "view",
      "type": "function",
      "constant": true
    },
    {
      "inputs": [],
      "name": "name",
      "outputs": [
        {
          "internalType": "string",
          "name": "",
          "type": "string"
        }
      ],
      "stateMutability": "view",
      "type": "function",
      "constant": true
    },
    {
      "inputs": [
        {
          "internalType": "uint256",
          "name": "tokenId",
          "type": "uint256"
        }
      ],
      "name": "ownerOf",
      "outputs": [
        {
          "internalType": "address",
          "name": "",
          "type": "address"
        }
      ],
      "stateMutability": "view",
      "type": "function",
      "constant": true
    },
    {
      "inputs": [
        {
          "internalType": "address",
          "name": "from",
          "type": "address"
        },
        {
          "internalType": "address",
          "name": "to",
          "type": "address"
        },
        {
          "internalType": "uint256",
          "name": "tokenId",
          "type": "uint256"
        }
      ],
      "name": "safeTransferFrom",
      "outputs": [],
      "stateMutability": "nonpayable",
      "type": "function"
    },
    {
      "inputs": [
        {
          "internalType": "address",
          "name": "from",
          "type": "address"
        },
        {
          "internalType": "address",
          "name": "to",
          "type": "address"
        },
        {
          "internalType": "uint256",
          "name": "tokenId",
          "type": "uint256"
        },
        {
          "internalType": "bytes",
          "name": "_data",
          "type": "bytes"
        }
      ],
      "name": "safeTransferFrom",
      "outputs": [],
      "stateMutability": "nonpayable",
      "type": "function"
    },
    {
      "inputs": [
        {
          "internalType": "address",
          "name": "operator",
          "type": "address"
        },
        {
          "internalType": "bool",
          "name": "approved",
          "type": "bool"
        }
      ],
      "name": "setApprovalForAll",
      "outputs": [],
      "stateMutability": "nonpayable",
      "type": "function"
    },
    {
      "inputs": [
        {
          "internalType": "bytes4",
          "name": "interfaceId",
          "type": "bytes4"
        }
      ],
      "name": "supportsInterface",
      "outputs": [
        {
          "internalType": "bool",
          "name": "",
          "type": "bool"
        }
      ],
      "stateMutability": "view",
      "type": "function",
      "constant": true
    },
    {
      "inputs": [],
      "name": "symbol",
      "outputs": [
        {
          "internalType": "string",
          "name": "",
          "type": "string"
        }
      ],
      "stateMutability": "view",
      "type": "function",
      "constant": true
    },
    {
      "inputs": [
        {
          "internalType": "uint256",
          "name": "tokenId",
          "type": "uint256"
        }
      ],
      "name": "tokenURI",
      "outputs": [
        {
          "internalType": "string",
          "name": "",
          "type": "string"
        }
      ],
      "stateMutability": "view",
      "type": "function",
      "constant": true
    },
    {
      "inputs": [
        {
          "internalType": "uint256",
          "name": "_tokenId",
          "type": "uint256"
        }
      ],
      "name": "invalidated",
      "outputs": [],
      "stateMutability": "nonpayable",
      "type": "function"
    },
    {
      "inputs": [
        {
          "internalType": "address",
          "name": "_to",
          "type": "address"
        },
        {
          "internalType": "string",
          "name": "_serialNumber",
          "type": "string"
        },
        {
          "internalType": "string",
          "name": "_name",
          "type": "string"
        }
      ],
      "name": "mint",
      "outputs": [],
      "stateMutability": "nonpayable",
      "type": "function"
    },
    {
      "inputs": [
        {
          "internalType": "uint256",
          "name": "_tokenId",
          "type": "uint256"
        }
      ],
      "name": "invalidateToken",
      "outputs": [],
      "stateMutability": "nonpayable",
      "type": "function"
    },
    {
      "inputs": [
        {
          "internalType": "uint256",
          "name": "_tokenId",
          "type": "uint256"
        }
      ],
      "name": "reportlost",
      "outputs": [],
      "stateMutability": "nonpayable",
      "type": "function"
    },
    {
      "inputs": [
        {
          "internalType": "uint256",
          "name": "_tokenId",
          "type": "uint256"
        }
      ],
      "name": "restoreToken",
      "outputs": [],
      "stateMutability": "nonpayable",
      "type": "function"
    },
    {
      "inputs": [
        {
          "internalType": "uint256",
          "name": "_tokenId",
          "type": "uint256"
        }
      ],
      "name": "checkState",
      "outputs": [
        {
          "internalType": "enum LuxChain.stages",
          "name": "",
          "type": "uint8"
        }
      ],
      "stateMutability": "view",
      "type": "function",
      "constant": true
    },
    {
      "inputs": [
        {
          "internalType": "address",
          "name": "_from",
          "type": "address"
        },
        {
          "internalType": "address",
          "name": "_to",
          "type": "address"
        },
        {
          "internalType": "uint256",
          "name": "_tokenId",
          "type": "uint256"
        }
      ],
      "name": "transferFrom",
      "outputs": [],
      "stateMutability": "nonpayable",
      "type": "function"
    },
    {
      "inputs": [
        {
          "internalType": "uint256",
          "name": "_tokenId",
          "type": "uint256"
        },
        {
          "internalType": "string",
          "name": "_information",
          "type": "string"
        }
      ],
      "name": "updateInformation",
      "outputs": [],
      "stateMutability": "nonpayable",
      "type": "function"
    },
    {
      "inputs": [
        {
          "internalType": "uint256",
          "name": "_tokenId",
          "type": "uint256"
        }
      ],
      "name": "viewSerialNumber",
      "outputs": [
        {
          "internalType": "string",
          "name": "",
          "type": "string"
        }
      ],
      "stateMutability": "view",
      "type": "function",
      "constant": true
    },
    {
      "inputs": [
        {
          "internalType": "uint256",
          "name": "_tokenId",
          "type": "uint256"
        }
      ],
      "name": "viewName",
      "outputs": [
        {
          "internalType": "string",
          "name": "",
          "type": "string"
        }
      ],
      "stateMutability": "view",
      "type": "function",
      "constant": true
    },
    {
      "inputs": [
        {
          "internalType": "string",
          "name": "_serialNumber",
          "type": "string"
        }
      ],
      "name": "viewTokenId",
      "outputs": [
        {
          "internalType": "uint256",
          "name": "",
          "type": "uint256"
        }
      ],
      "stateMutability": "view",
      "type": "function",
      "constant": true
    },
    {
      "inputs": [],
      "name": "getTotalSupply",
      "outputs": [
        {
          "internalType": "uint256",
          "name": "",
          "type": "uint256"
        }
      ],
      "stateMutability": "view",
      "type": "function",
      "constant": true
    }
  ],
  "bytecode": "0x608060405233600660006101000a81548173ffffffffffffffffffffffffffffffffffffffff021916908373ffffffffffffffffffffffffffffffffffffffff1602179055503480156200005257600080fd5b50604051620042b1380380620042b1833981810160405281019062000078919062000303565b8181816000908051906020019062000092929190620000b6565b508060019080519060200190620000ab929190620000b6565b5050505050620003ed565b828054620000c490620003b7565b90600052602060002090601f016020900481019282620000e8576000855562000134565b82601f106200010357805160ff191683800117855562000134565b8280016001018555821562000134579182015b828111156200013357825182559160200191906001019062000116565b5b50905062000143919062000147565b5090565b5b808211156200016257600081600090555060010162000148565b5090565b6000604051905090565b600080fd5b600080fd5b600080fd5b600080fd5b6000601f19601f8301169050919050565b7f4e487b7100000000000000000000000000000000000000000000000000000000600052604160045260246000fd5b620001cf8262000184565b810181811067ffffffffffffffff82111715620001f157620001f062000195565b5b80604052505050565b60006200020662000166565b9050620002148282620001c4565b919050565b600067ffffffffffffffff82111562000237576200023662000195565b5b620002428262000184565b9050602081019050919050565b60005b838110156200026f57808201518184015260208101905062000252565b838111156200027f576000848401525b50505050565b60006200029c620002968462000219565b620001fa565b905082815260208101848484011115620002bb57620002ba6200017f565b5b620002c88482856200024f565b509392505050565b600082601f830112620002e857620002e76200017a565b5b8151620002fa84826020860162000285565b91505092915050565b600080604083850312156200031d576200031c62000170565b5b600083015167ffffffffffffffff8111156200033e576200033d62000175565b5b6200034c85828601620002d0565b925050602083015167ffffffffffffffff81111562000370576200036f62000175565b5b6200037e85828601620002d0565b9150509250929050565b7f4e487b7100000000000000000000000000000000000000000000000000000000600052602260045260246000fd5b60006002820490506001821680620003d057607f821691505b60208210811415620003e757620003e662000388565b5b50919050565b613eb480620003fd6000396000f3fe608060405234801561001057600080fd5b50600436106101585760003560e01c806370a08231116100c3578063c87b56dd1161007c578063c87b56dd146103e7578063d340c3c514610417578063d4456eeb14610447578063e96fe90514610463578063e985e9c51461047f578063fc1149ae146104af57610158565b806370a082311461032757806395d89b41146103575780639907119014610375578063a22cb46514610391578063b88d4fde146103ad578063c4e41b22146103c957610158565b8063207b850911610115578063207b85091461025757806323b872dd14610287578063393ed91a146102a357806342842e0e146102bf5780634f5e9376146102db5780636352211e146102f757610158565b806301ffc9a71461015d57806306fdde031461018d578063081812fc146101ab578063095ea7b3146101db5780630fdcf877146101f75780631b868d0014610227575b600080fd5b61017760048036038101906101729190612998565b6104cb565b60405161018491906129e0565b60405180910390f35b6101956105ad565b6040516101a29190612a94565b60405180910390f35b6101c560048036038101906101c09190612aec565b61063f565b6040516101d29190612b5a565b60405180910390f35b6101f560048036038101906101f09190612ba1565b6106c4565b005b610211600480360381019061020c9190612aec565b6107dc565b60405161021e9190612c58565b60405180910390f35b610241600480360381019061023c9190612aec565b610809565b60405161024e9190612a94565b60405180910390f35b610271600480360381019061026c9190612da8565b6108b1565b60405161027e9190612e00565b60405180910390f35b6102a1600480360381019061029c9190612e1b565b6108d9565b005b6102bd60048036038101906102b89190612aec565b610b36565b005b6102d960048036038101906102d49190612e1b565b610d62565b005b6102f560048036038101906102f09190612e6e565b610d82565b005b610311600480360381019061030c9190612aec565b610efd565b60405161031e9190612b5a565b60405180910390f35b610341600480360381019061033c9190612eca565b610faf565b60405161034e9190612e00565b60405180910390f35b61035f611067565b60405161036c9190612a94565b60405180910390f35b61038f600480360381019061038a9190612ef7565b6110f9565b005b6103ab60048036038101906103a69190612fae565b611308565b005b6103c760048036038101906103c2919061308f565b61131e565b005b6103d1611380565b6040516103de9190612e00565b60405180910390f35b61040160048036038101906103fc9190612aec565b61138a565b60405161040e9190612a94565b60405180910390f35b610431600480360381019061042c9190612aec565b611431565b60405161043e9190612a94565b60405180910390f35b610461600480360381019061045c9190612aec565b6114d9565b005b61047d60048036038101906104789190612aec565b61166a565b005b61049960048036038101906104949190613112565b61187b565b6040516104a691906129e0565b60405180910390f35b6104c960048036038101906104c49190612aec565b61190f565b005b60007f80ac58cd000000000000000000000000000000000000000000000000000000007bffffffffffffffffffffffffffffffffffffffffffffffffffffffff1916827bffffffffffffffffffffffffffffffffffffffffffffffffffffffff1916148061059657507f5b5e139f000000000000000000000000000000000000000000000000000000007bffffffffffffffffffffffffffffffffffffffffffffffffffffffff1916827bffffffffffffffffffffffffffffffffffffffffffffffffffffffff1916145b806105a657506105a582611b60565b5b9050919050565b6060600080546105bc90613181565b80601f01602080910402602001604051908101604052809291908181526020018280546105e890613181565b80156106355780601f1061060a57610100808354040283529160200191610635565b820191906000526020600020905b81548152906001019060200180831161061857829003601f168201915b5050505050905090565b600061064a82611bca565b610689576040517f08c379a000000000000000000000000000000000000000000000000000000000815260040161068090613225565b60405180910390fd5b6004600083815260200190815260200160002060009054906101000a900473ffffffffffffffffffffffffffffffffffffffff169050919050565b60006106cf82610efd565b90508073ffffffffffffffffffffffffffffffffffffffff168373ffffffffffffffffffffffffffffffffffffffff161415610740576040517f08c379a0000000000000000000000000000000000000000000000000000000008152600401610737906132b7565b60405180910390fd5b8073ffffffffffffffffffffffffffffffffffffffff1661075f611c36565b73ffffffffffffffffffffffffffffffffffffffff16148061078e575061078d81610788611c36565b61187b565b5b6107cd576040517f08c379a00000000000000000000000000000000000000000000000000000000081526004016107c490613349565b60405180910390fd5b6107d78383611c3e565b505050565b60006008600083815260200190815260200160002060030160009054906101000a900460ff169050919050565b606060086000838152602001908152602001600020600101805461082c90613181565b80601f016020809104026020016040519081016040528092919081815260200182805461085890613181565b80156108a55780601f1061087a576101008083540402835291602001916108a5565b820191906000526020600020905b81548152906001019060200180831161088857829003601f168201915b50505050509050919050565b60006009826040516108c391906133a5565b9081526020016040518091039020549050919050565b80600260038111156108ee576108ed612be1565b5b6008600083815260200190815260200160002060030160009054906101000a900460ff16600381111561092457610923612be1565b5b1480156109535750600a600860008381526020019081526020016000206004015461094f91906133eb565b4210155b5081600660009054906101000a900473ffffffffffffffffffffffffffffffffffffffff1673ffffffffffffffffffffffffffffffffffffffff163373ffffffffffffffffffffffffffffffffffffffff1614806109e457506109b581610efd565b73ffffffffffffffffffffffffffffffffffffffff163373ffffffffffffffffffffffffffffffffffffffff16145b610a23576040517f08c379a0000000000000000000000000000000000000000000000000000000008152600401610a1a9061348d565b60405180910390fd5b8260006003811115610a3857610a37612be1565b5b6008600083815260200190815260200160002060030160009054906101000a900460ff166003811115610a6e57610a6d612be1565b5b14610aae576040517f08c379a0000000000000000000000000000000000000000000000000000000008152600401610aa5906134f9565b60405180910390fd5b610ab9868686611cf7565b60405180602001604052806000815250600860008681526020019081526020016000206002019080519060200190610af2929190612889565b507f5d439cf3a1f6215b41908e5b0b300f39679a3ff1cc010691c1d4ec4d0e2a4ebb868686604051610b2693929190613519565b60405180910390a1505050505050565b600660009054906101000a900473ffffffffffffffffffffffffffffffffffffffff1673ffffffffffffffffffffffffffffffffffffffff163373ffffffffffffffffffffffffffffffffffffffff1614610bc6576040517f08c379a0000000000000000000000000000000000000000000000000000000008152600401610bbd9061359c565b60405180910390fd5b8060026003811115610bdb57610bda612be1565b5b6008600083815260200190815260200160002060030160009054906101000a900460ff166003811115610c1157610c10612be1565b5b148015610c405750600a6008600083815260200190815260200160002060040154610c3c91906133eb565b4210155b508160006003811115610c5657610c55612be1565b5b6008600083815260200190815260200160002060030160009054906101000a900460ff166003811115610c8c57610c8b612be1565b5b14610ccc576040517f08c379a0000000000000000000000000000000000000000000000000000000008152600401610cc3906134f9565b60405180910390fd5b60026008600085815260200190815260200160002060030160006101000a81548160ff02191690836003811115610d0657610d05612be1565b5b02179055504260086000858152602001908152602001600020600401819055507f1b0cd44f7de60590c135202a674c3e37546a8a53e701d13f36d5a4185c03313383604051610d559190612e00565b60405180910390a1505050565b610d7d8383836040518060200160405280600081525061131e565b505050565b81600660009054906101000a900473ffffffffffffffffffffffffffffffffffffffff1673ffffffffffffffffffffffffffffffffffffffff163373ffffffffffffffffffffffffffffffffffffffff161480610e125750610de381610efd565b73ffffffffffffffffffffffffffffffffffffffff163373ffffffffffffffffffffffffffffffffffffffff16145b610e51576040517f08c379a0000000000000000000000000000000000000000000000000000000008152600401610e489061348d565b60405180910390fd5b8260026003811115610e6657610e65612be1565b5b6008600083815260200190815260200160002060030160009054906101000a900460ff166003811115610e9c57610e9b612be1565b5b148015610ecb5750600a6008600083815260200190815260200160002060040154610ec791906133eb565b4210155b5082600860008681526020019081526020016000206002019080519060200190610ef6929190612889565b5050505050565b6000806002600084815260200190815260200160002060009054906101000a900473ffffffffffffffffffffffffffffffffffffffff169050600073ffffffffffffffffffffffffffffffffffffffff168173ffffffffffffffffffffffffffffffffffffffff161415610fa6576040517f08c379a0000000000000000000000000000000000000000000000000000000008152600401610f9d9061362e565b60405180910390fd5b80915050919050565b60008073ffffffffffffffffffffffffffffffffffffffff168273ffffffffffffffffffffffffffffffffffffffff161415611020576040517f08c379a0000000000000000000000000000000000000000000000000000000008152600401611017906136c0565b60405180910390fd5b600360008373ffffffffffffffffffffffffffffffffffffffff1673ffffffffffffffffffffffffffffffffffffffff168152602001908152602001600020549050919050565b60606001805461107690613181565b80601f01602080910402602001604051908101604052809291908181526020018280546110a290613181565b80156110ef5780601f106110c4576101008083540402835291602001916110ef565b820191906000526020600020905b8154815290600101906020018083116110d257829003601f168201915b5050505050905090565b600660009054906101000a900473ffffffffffffffffffffffffffffffffffffffff1673ffffffffffffffffffffffffffffffffffffffff163373ffffffffffffffffffffffffffffffffffffffff1614611189576040517f08c379a00000000000000000000000000000000000000000000000000000000081526004016111809061359c565b60405180910390fd5b61119583600754611d57565b60006040518060a00160405280848152602001838152602001604051806020016040528060008152508152602001600060038111156111d7576111d6612be1565b5b8152602001428152509050806008600060075481526020019081526020016000206000820151816000019080519060200190611214929190612889565b506020820151816001019080519060200190611231929190612889565b50604082015181600201908051906020019061124e929190612889565b5060608201518160030160006101000a81548160ff0219169083600381111561127a57611279612be1565b5b0217905550608082015181600401559050506007600081548092919061129f906136e0565b919050556009846040516112b391906133a5565b9081526020016040518091039020819055507f611b2fed7af3df9474d8f5e903e1010a44fc43fded2f4cde0cc65a1c93e7798284846007546040516112fa93929190613729565b60405180910390a150505050565b61131a611313611c36565b8383611f31565b5050565b61132f611329611c36565b8361209e565b61136e576040517f08c379a0000000000000000000000000000000000000000000000000000000008152600401611365906137d9565b60405180910390fd5b61137a8484848461217c565b50505050565b6000600754905090565b606061139582611bca565b6113d4576040517f08c379a00000000000000000000000000000000000000000000000000000000081526004016113cb9061386b565b60405180910390fd5b60006113de6121d8565b905060008151116113fe5760405180602001604052806000815250611429565b80611408846121ef565b60405160200161141992919061388b565b6040516020818303038152906040525b915050919050565b606060086000838152602001908152602001600020600001805461145490613181565b80601f016020809104026020016040519081016040528092919081815260200182805461148090613181565b80156114cd5780601f106114a2576101008083540402835291602001916114cd565b820191906000526020600020905b8154815290600101906020018083116114b057829003601f168201915b50505050509050919050565b600660009054906101000a900473ffffffffffffffffffffffffffffffffffffffff1673ffffffffffffffffffffffffffffffffffffffff163373ffffffffffffffffffffffffffffffffffffffff1614611569576040517f08c379a00000000000000000000000000000000000000000000000000000000081526004016115609061359c565b60405180910390fd5b6002600381111561157d5761157c612be1565b5b6008600083815260200190815260200160002060030160009054906101000a900460ff1660038111156115b3576115b2612be1565b5b1480156115e25750600560086000838152602001908152602001600020600401546115de91906133eb565b4210155b156116675760036008600083815260200190815260200160002060030160006101000a81548160ff0219169083600381111561162157611620612be1565b5b021790555061162f81612350565b7f16499e91d2432d8838e5dff38cb02f39fa94752ccff3f3f061b8faeee31308cb8160405161165e9190612e00565b60405180910390a15b50565b600660009054906101000a900473ffffffffffffffffffffffffffffffffffffffff1673ffffffffffffffffffffffffffffffffffffffff163373ffffffffffffffffffffffffffffffffffffffff16146116fa576040517f08c379a00000000000000000000000000000000000000000000000000000000081526004016116f19061359c565b60405180910390fd5b806002600381111561170f5761170e612be1565b5b6008600083815260200190815260200160002060030160009054906101000a900460ff16600381111561174557611744612be1565b5b1480156117745750600a600860008381526020019081526020016000206004015461177091906133eb565b4210155b508160038081111561178957611788612be1565b5b6008600083815260200190815260200160002060030160009054906101000a900460ff1660038111156117bf576117be612be1565b5b1415611800576040517f08c379a00000000000000000000000000000000000000000000000000000000081526004016117f7906138fb565b60405180910390fd5b60006008600085815260200190815260200160002060030160006101000a81548160ff0219169083600381111561183a57611839612be1565b5b02179055507f6f1e384d0c04e4517b853b567c90c9a4001203d9ffa8d7a0e6b74a526411f25d8360405161186e9190612e00565b60405180910390a1505050565b6000600560008473ffffffffffffffffffffffffffffffffffffffff1673ffffffffffffffffffffffffffffffffffffffff16815260200190815260200160002060008373ffffffffffffffffffffffffffffffffffffffff1673ffffffffffffffffffffffffffffffffffffffff16815260200190815260200160002060009054906101000a900460ff16905092915050565b80600660009054906101000a900473ffffffffffffffffffffffffffffffffffffffff1673ffffffffffffffffffffffffffffffffffffffff163373ffffffffffffffffffffffffffffffffffffffff16148061199f575061197081610efd565b73ffffffffffffffffffffffffffffffffffffffff163373ffffffffffffffffffffffffffffffffffffffff16145b6119de576040517f08c379a00000000000000000000000000000000000000000000000000000000081526004016119d59061348d565b60405180910390fd5b81600260038111156119f3576119f2612be1565b5b6008600083815260200190815260200160002060030160009054906101000a900460ff166003811115611a2957611a28612be1565b5b148015611a585750600a6008600083815260200190815260200160002060040154611a5491906133eb565b4210155b508260006003811115611a6e57611a6d612be1565b5b6008600083815260200190815260200160002060030160009054906101000a900460ff166003811115611aa457611aa3612be1565b5b14611ae4576040517f08c379a0000000000000000000000000000000000000000000000000000000008152600401611adb906134f9565b60405180910390fd5b60016008600086815260200190815260200160002060030160006101000a81548160ff02191690836003811115611b1e57611b1d612be1565b5b02179055507f8009a67fcb765e991aad86deaf05be1aa2eb10725a1dc516f5858c78cf88459584604051611b529190612e00565b60405180910390a150505050565b60007f01ffc9a7000000000000000000000000000000000000000000000000000000007bffffffffffffffffffffffffffffffffffffffffffffffffffffffff1916827bffffffffffffffffffffffffffffffffffffffffffffffffffffffff1916149050919050565b60008073ffffffffffffffffffffffffffffffffffffffff166002600084815260200190815260200160002060009054906101000a900473ffffffffffffffffffffffffffffffffffffffff1673ffffffffffffffffffffffffffffffffffffffff1614159050919050565b600033905090565b816004600083815260200190815260200160002060006101000a81548173ffffffffffffffffffffffffffffffffffffffff021916908373ffffffffffffffffffffffffffffffffffffffff160217905550808273ffffffffffffffffffffffffffffffffffffffff16611cb183610efd565b73ffffffffffffffffffffffffffffffffffffffff167f8c5be1e5ebec7d5bd14f71427d1e84f3dd0314c0f7b2291e5b200ac8c7c3b92560405160405180910390a45050565b611d08611d02611c36565b8261209e565b611d47576040517f08c379a0000000000000000000000000000000000000000000000000000000008152600401611d3e906137d9565b60405180910390fd5b611d5283838361246d565b505050565b600073ffffffffffffffffffffffffffffffffffffffff168273ffffffffffffffffffffffffffffffffffffffff161415611dc7576040517f08c379a0000000000000000000000000000000000000000000000000000000008152600401611dbe90613967565b60405180910390fd5b611dd081611bca565b15611e10576040517f08c379a0000000000000000000000000000000000000000000000000000000008152600401611e07906139d3565b60405180910390fd5b611e1c600083836126d4565b6001600360008473ffffffffffffffffffffffffffffffffffffffff1673ffffffffffffffffffffffffffffffffffffffff1681526020019081526020016000206000828254611e6c91906133eb565b92505081905550816002600083815260200190815260200160002060006101000a81548173ffffffffffffffffffffffffffffffffffffffff021916908373ffffffffffffffffffffffffffffffffffffffff160217905550808273ffffffffffffffffffffffffffffffffffffffff16600073ffffffffffffffffffffffffffffffffffffffff167fddf252ad1be2c89b69c2b068fc378daa952ba7f163c4a11628f55a4df523b3ef60405160405180910390a4611f2d600083836126d9565b5050565b8173ffffffffffffffffffffffffffffffffffffffff168373ffffffffffffffffffffffffffffffffffffffff161415611fa0576040517f08c379a0000000000000000000000000000000000000000000000000000000008152600401611f9790613a3f565b60405180910390fd5b80600560008573ffffffffffffffffffffffffffffffffffffffff1673ffffffffffffffffffffffffffffffffffffffff16815260200190815260200160002060008473ffffffffffffffffffffffffffffffffffffffff1673ffffffffffffffffffffffffffffffffffffffff16815260200190815260200160002060006101000a81548160ff0219169083151502179055508173ffffffffffffffffffffffffffffffffffffffff168373ffffffffffffffffffffffffffffffffffffffff167f17307eab39ab6107e8899845ad3d59bd9653f200f220920489ca2b5937696c318360405161209191906129e0565b60405180910390a3505050565b60006120a982611bca565b6120e8576040517f08c379a00000000000000000000000000000000000000000000000000000000081526004016120df90613ad1565b60405180910390fd5b60006120f383610efd565b90508073ffffffffffffffffffffffffffffffffffffffff168473ffffffffffffffffffffffffffffffffffffffff16148061216257508373ffffffffffffffffffffffffffffffffffffffff1661214a8461063f565b73ffffffffffffffffffffffffffffffffffffffff16145b806121735750612172818561187b565b5b91505092915050565b61218784848461246d565b612193848484846126de565b6121d2576040517f08c379a00000000000000000000000000000000000000000000000000000000081526004016121c990613b63565b60405180910390fd5b50505050565b606060405180602001604052806000815250905090565b60606000821415612237576040518060400160405280600181526020017f3000000000000000000000000000000000000000000000000000000000000000815250905061234b565b600082905060005b60008214612269578080612252906136e0565b915050600a826122629190613bb2565b915061223f565b60008167ffffffffffffffff81111561228557612284612c7d565b5b6040519080825280601f01601f1916602001820160405280156122b75781602001600182028036833780820191505090505b5090505b60008514612344576001826122d09190613be3565b9150600a856122df9190613c17565b60306122eb91906133eb565b60f81b81838151811061230157612300613c48565b5b60200101907effffffffffffffffffffffffffffffffffffffffffffffffffffffffffffff1916908160001a905350600a8561233d9190613bb2565b94506122bb565b8093505050505b919050565b600061235b82610efd565b9050612369816000846126d4565b612374600083611c3e565b6001600360008373ffffffffffffffffffffffffffffffffffffffff1673ffffffffffffffffffffffffffffffffffffffff16815260200190815260200160002060008282546123c49190613be3565b925050819055506002600083815260200190815260200160002060006101000a81549073ffffffffffffffffffffffffffffffffffffffff021916905581600073ffffffffffffffffffffffffffffffffffffffff168273ffffffffffffffffffffffffffffffffffffffff167fddf252ad1be2c89b69c2b068fc378daa952ba7f163c4a11628f55a4df523b3ef60405160405180910390a4612469816000846126d9565b5050565b8273ffffffffffffffffffffffffffffffffffffffff1661248d82610efd565b73ffffffffffffffffffffffffffffffffffffffff16146124e3576040517f08c379a00000000000000000000000000000000000000000000000000000000081526004016124da90613ce9565b60405180910390fd5b600073ffffffffffffffffffffffffffffffffffffffff168273ffffffffffffffffffffffffffffffffffffffff161415612553576040517f08c379a000000000000000000000000000000000000000000000000000000000815260040161254a90613d7b565b60405180910390fd5b61255e8383836126d4565b612569600082611c3e565b6001600360008573ffffffffffffffffffffffffffffffffffffffff1673ffffffffffffffffffffffffffffffffffffffff16815260200190815260200160002060008282546125b99190613be3565b925050819055506001600360008473ffffffffffffffffffffffffffffffffffffffff1673ffffffffffffffffffffffffffffffffffffffff168152602001908152602001600020600082825461261091906133eb565b92505081905550816002600083815260200190815260200160002060006101000a81548173ffffffffffffffffffffffffffffffffffffffff021916908373ffffffffffffffffffffffffffffffffffffffff160217905550808273ffffffffffffffffffffffffffffffffffffffff168473ffffffffffffffffffffffffffffffffffffffff167fddf252ad1be2c89b69c2b068fc378daa952ba7f163c4a11628f55a4df523b3ef60405160405180910390a46126cf8383836126d9565b505050565b505050565b505050565b60006126ff8473ffffffffffffffffffffffffffffffffffffffff16612866565b15612859578373ffffffffffffffffffffffffffffffffffffffff1663150b7a02612728611c36565b8786866040518563ffffffff1660e01b815260040161274a9493929190613df0565b6020604051808303816000875af192505050801561278657506040513d601f19601f820116820180604052508101906127839190613e51565b60015b612809573d80600081146127b6576040519150601f19603f3d011682016040523d82523d6000602084013e6127bb565b606091505b50600081511415612801576040517f08c379a00000000000000000000000000000000000000000000000000000000081526004016127f890613b63565b60405180910390fd5b805181602001fd5b63150b7a0260e01b7bffffffffffffffffffffffffffffffffffffffffffffffffffffffff1916817bffffffffffffffffffffffffffffffffffffffffffffffffffffffff19161491505061285e565b600190505b949350505050565b6000808273ffffffffffffffffffffffffffffffffffffffff163b119050919050565b82805461289590613181565b90600052602060002090601f0160209004810192826128b757600085556128fe565b82601f106128d057805160ff19168380011785556128fe565b828001600101855582156128fe579182015b828111156128fd5782518255916020019190600101906128e2565b5b50905061290b919061290f565b5090565b5b80821115612928576000816000905550600101612910565b5090565b6000604051905090565b600080fd5b600080fd5b60007fffffffff0000000000000000000000000000000000000000000000000000000082169050919050565b61297581612940565b811461298057600080fd5b50565b6000813590506129928161296c565b92915050565b6000602082840312156129ae576129ad612936565b5b60006129bc84828501612983565b91505092915050565b60008115159050919050565b6129da816129c5565b82525050565b60006020820190506129f560008301846129d1565b92915050565b600081519050919050565b600082825260208201905092915050565b60005b83811015612a35578082015181840152602081019050612a1a565b83811115612a44576000848401525b50505050565b6000601f19601f8301169050919050565b6000612a66826129fb565b612a708185612a06565b9350612a80818560208601612a17565b612a8981612a4a565b840191505092915050565b60006020820190508181036000830152612aae8184612a5b565b905092915050565b6000819050919050565b612ac981612ab6565b8114612ad457600080fd5b50565b600081359050612ae681612ac0565b92915050565b600060208284031215612b0257612b01612936565b5b6000612b1084828501612ad7565b91505092915050565b600073ffffffffffffffffffffffffffffffffffffffff82169050919050565b6000612b4482612b19565b9050919050565b612b5481612b39565b82525050565b6000602082019050612b6f6000830184612b4b565b92915050565b612b7e81612b39565b8114612b8957600080fd5b50565b600081359050612b9b81612b75565b92915050565b60008060408385031215612bb857612bb7612936565b5b6000612bc685828601612b8c565b9250506020612bd785828601612ad7565b9150509250929050565b7f4e487b7100000000000000000000000000000000000000000000000000000000600052602160045260246000fd5b60048110612c2157612c20612be1565b5b50565b6000819050612c3282612c10565b919050565b6000612c4282612c24565b9050919050565b612c5281612c37565b82525050565b6000602082019050612c6d6000830184612c49565b92915050565b600080fd5b600080fd5b7f4e487b7100000000000000000000000000000000000000000000000000000000600052604160045260246000fd5b612cb582612a4a565b810181811067ffffffffffffffff82111715612cd457612cd3612c7d565b5b80604052505050565b6000612ce761292c565b9050612cf38282612cac565b919050565b600067ffffffffffffffff821115612d1357612d12612c7d565b5b612d1c82612a4a565b9050602081019050919050565b82818337600083830152505050565b6000612d4b612d4684612cf8565b612cdd565b905082815260208101848484011115612d6757612d66612c78565b5b612d72848285612d29565b509392505050565b600082601f830112612d8f57612d8e612c73565b5b8135612d9f848260208601612d38565b91505092915050565b600060208284031215612dbe57612dbd612936565b5b600082013567ffffffffffffffff811115612ddc57612ddb61293b565b5b612de884828501612d7a565b91505092915050565b612dfa81612ab6565b82525050565b6000602082019050612e156000830184612df1565b92915050565b600080600060608486031215612e3457612e33612936565b5b6000612e4286828701612b8c565b9350506020612e5386828701612b8c565b9250506040612e6486828701612ad7565b9150509250925092565b60008060408385031215612e8557612e84612936565b5b6000612e9385828601612ad7565b925050602083013567ffffffffffffffff811115612eb457612eb361293b565b5b612ec085828601612d7a565b9150509250929050565b600060208284031215612ee057612edf612936565b5b6000612eee84828501612b8c565b91505092915050565b600080600060608486031215612f1057612f0f612936565b5b6000612f1e86828701612b8c565b935050602084013567ffffffffffffffff811115612f3f57612f3e61293b565b5b612f4b86828701612d7a565b925050604084013567ffffffffffffffff811115612f6c57612f6b61293b565b5b612f7886828701612d7a565b9150509250925092565b612f8b816129c5565b8114612f9657600080fd5b50565b600081359050612fa881612f82565b92915050565b60008060408385031215612fc557612fc4612936565b5b6000612fd385828601612b8c565b9250506020612fe485828601612f99565b9150509250929050565b600067ffffffffffffffff82111561300957613008612c7d565b5b61301282612a4a565b9050602081019050919050565b600061303261302d84612fee565b612cdd565b90508281526020810184848401111561304e5761304d612c78565b5b613059848285612d29565b509392505050565b600082601f83011261307657613075612c73565b5b813561308684826020860161301f565b91505092915050565b600080600080608085870312156130a9576130a8612936565b5b60006130b787828801612b8c565b94505060206130c887828801612b8c565b93505060406130d987828801612ad7565b925050606085013567ffffffffffffffff8111156130fa576130f961293b565b5b61310687828801613061565b91505092959194509250565b6000806040838503121561312957613128612936565b5b600061313785828601612b8c565b925050602061314885828601612b8c565b9150509250929050565b7f4e487b7100000000000000000000000000000000000000000000000000000000600052602260045260246000fd5b6000600282049050600182168061319957607f821691505b602082108114156131ad576131ac613152565b5b50919050565b7f4552433732313a20617070726f76656420717565727920666f72206e6f6e657860008201527f697374656e7420746f6b656e0000000000000000000000000000000000000000602082015250565b600061320f602c83612a06565b915061321a826131b3565b604082019050919050565b6000602082019050818103600083015261323e81613202565b9050919050565b7f4552433732313a20617070726f76616c20746f2063757272656e74206f776e6560008201527f7200000000000000000000000000000000000000000000000000000000000000602082015250565b60006132a1602183612a06565b91506132ac82613245565b604082019050919050565b600060208201905081810360008301526132d081613294565b9050919050565b7f4552433732313a20617070726f76652063616c6c6572206973206e6f74206f7760008201527f6e6572206e6f7220617070726f76656420666f7220616c6c0000000000000000602082015250565b6000613333603883612a06565b915061333e826132d7565b604082019050919050565b6000602082019050818103600083015261336281613326565b9050919050565b600081905092915050565b600061337f826129fb565b6133898185613369565b9350613399818560208601612a17565b80840191505092915050565b60006133b18284613374565b915081905092915050565b7f4e487b7100000000000000000000000000000000000000000000000000000000600052601160045260246000fd5b60006133f682612ab6565b915061340183612ab6565b9250827fffffffffffffffffffffffffffffffffffffffffffffffffffffffffffffffff03821115613436576134356133bc565b5b828201905092915050565b7f41646d696e206f72206f776e6572206f6e6c792066756e6374696f6e00000000600082015250565b6000613477601c83612a06565b915061348282613441565b602082019050919050565b600060208201905081810360008301526134a68161346a565b9050919050565b7f546f6b656e2069732061626e6f726d616c000000000000000000000000000000600082015250565b60006134e3601183612a06565b91506134ee826134ad565b602082019050919050565b60006020820190508181036000830152613512816134d6565b9050919050565b600060608201905061352e6000830186612b4b565b61353b6020830185612b4b565b6135486040830184612df1565b949350505050565b7f41646d696e206f6e6c792066756e6374696f6e00000000000000000000000000600082015250565b6000613586601383612a06565b915061359182613550565b602082019050919050565b600060208201905081810360008301526135b581613579565b9050919050565b7f4552433732313a206f776e657220717565727920666f72206e6f6e657869737460008201527f656e7420746f6b656e0000000000000000000000000000000000000000000000602082015250565b6000613618602983612a06565b9150613623826135bc565b604082019050919050565b600060208201905081810360008301526136478161360b565b9050919050565b7f4552433732313a2062616c616e636520717565727920666f7220746865207a6560008201527f726f206164647265737300000000000000000000000000000000000000000000602082015250565b60006136aa602a83612a06565b91506136b58261364e565b604082019050919050565b600060208201905081810360008301526136d98161369d565b9050919050565b60006136eb82612ab6565b91507fffffffffffffffffffffffffffffffffffffffffffffffffffffffffffffffff82141561371e5761371d6133bc565b5b600182019050919050565b600060608201905061373e6000830186612b4b565b81810360208301526137508185612a5b565b905061375f6040830184612df1565b949350505050565b7f4552433732313a207472616e736665722063616c6c6572206973206e6f74206f60008201527f776e6572206e6f7220617070726f766564000000000000000000000000000000602082015250565b60006137c3603183612a06565b91506137ce82613767565b604082019050919050565b600060208201905081810360008301526137f2816137b6565b9050919050565b7f4552433732314d657461646174613a2055524920717565727920666f72206e6f60008201527f6e6578697374656e7420746f6b656e0000000000000000000000000000000000602082015250565b6000613855602f83612a06565b9150613860826137f9565b604082019050919050565b6000602082019050818103600083015261388481613848565b9050919050565b60006138978285613374565b91506138a38284613374565b91508190509392505050565b7f546f6b656e20697320696e76616c69646174656420616c726561647900000000600082015250565b60006138e5601c83612a06565b91506138f0826138af565b602082019050919050565b60006020820190508181036000830152613914816138d8565b9050919050565b7f4552433732313a206d696e7420746f20746865207a65726f2061646472657373600082015250565b6000613951602083612a06565b915061395c8261391b565b602082019050919050565b6000602082019050818103600083015261398081613944565b9050919050565b7f4552433732313a20746f6b656e20616c7265616479206d696e74656400000000600082015250565b60006139bd601c83612a06565b91506139c882613987565b602082019050919050565b600060208201905081810360008301526139ec816139b0565b9050919050565b7f4552433732313a20617070726f766520746f2063616c6c657200000000000000600082015250565b6000613a29601983612a06565b9150613a34826139f3565b602082019050919050565b60006020820190508181036000830152613a5881613a1c565b9050919050565b7f4552433732313a206f70657261746f7220717565727920666f72206e6f6e657860008201527f697374656e7420746f6b656e0000000000000000000000000000000000000000602082015250565b6000613abb602c83612a06565b9150613ac682613a5f565b604082019050919050565b60006020820190508181036000830152613aea81613aae565b9050919050565b7f4552433732313a207472616e7366657220746f206e6f6e20455243373231526560008201527f63656976657220696d706c656d656e7465720000000000000000000000000000602082015250565b6000613b4d603283612a06565b9150613b5882613af1565b604082019050919050565b60006020820190508181036000830152613b7c81613b40565b9050919050565b7f4e487b7100000000000000000000000000000000000000000000000000000000600052601260045260246000fd5b6000613bbd82612ab6565b9150613bc883612ab6565b925082613bd857613bd7613b83565b5b828204905092915050565b6000613bee82612ab6565b9150613bf983612ab6565b925082821015613c0c57613c0b6133bc565b5b828203905092915050565b6000613c2282612ab6565b9150613c2d83612ab6565b925082613c3d57613c3c613b83565b5b828206905092915050565b7f4e487b7100000000000000000000000000000000000000000000000000000000600052603260045260246000fd5b7f4552433732313a207472616e736665722066726f6d20696e636f72726563742060008201527f6f776e6572000000000000000000000000000000000000000000000000000000602082015250565b6000613cd3602583612a06565b9150613cde82613c77565b604082019050919050565b60006020820190508181036000830152613d0281613cc6565b9050919050565b7f4552433732313a207472616e7366657220746f20746865207a65726f2061646460008201527f7265737300000000000000000000000000000000000000000000000000000000602082015250565b6000613d65602483612a06565b9150613d7082613d09565b604082019050919050565b60006020820190508181036000830152613d9481613d58565b9050919050565b600081519050919050565b600082825260208201905092915050565b6000613dc282613d9b565b613dcc8185613da6565b9350613ddc818560208601612a17565b613de581612a4a565b840191505092915050565b6000608082019050613e056000830187612b4b565b613e126020830186612b4b565b613e1f6040830185612df1565b8181036060830152613e318184613db7565b905095945050505050565b600081519050613e4b8161296c565b92915050565b600060208284031215613e6757613e66612936565b5b6000613e7584828501613e3c565b9150509291505056fea264697066735822122021bf40d80bfab160411e77a9a2b3d94175b937c8a700f68a4428b8507df6fb0064736f6c634300080b0033",
  "immutableReferences": {},
  "source": "//SPDX-License-Identifier: MIT\npragma solidity ^0.8.11;\nimport \"@openzeppelin/contracts/token/ERC721/ERC721.sol\";\n\ncontract LuxChain is ERC721 {\n    address _owner = msg.sender;\n    uint256 _supply;\n\n    enum stages{\n        normal,\n        lost,\n        invalidating,\n        invalidate\n    }\n\n    mapping(uint256 => Token) tokens;\n    mapping(string => uint256) serialNumbers;\n\n    event mintToken(address _to, string _serNumber, uint256 tokenId);\n    event transferEvent(address _from, address _to, uint256 _tokenId);\n    event invalidToken(uint256 _tokenId);\n    event tokendestory(uint256 _tokenId);\n    event tokenLost(uint256 _tokenId);\n    event tokenrestored(uint256 _tokenId);\n\n    constructor(string memory _name, string memory _symbol)\n        ERC721(_name, _symbol)\n    {}\n\n    struct Token {\n        string serialNumber;\n        string name;\n        string information;\n        stages state;\n        uint256 time;\n    }\n\n    modifier stateoftoken(uint256 tokenId) {\n        require(tokens[tokenId].state == stages.normal, \"Token is abnormal\");\n        _;\n    }\n\n    modifier validToken(uint256 tokenId) {\n        require(tokens[tokenId].state != stages.invalidate, \"Token is invalidated already\");\n        _;\n    }\n\n    modifier timedDestory(uint256 _tokenId) {\n        if (tokens[_tokenId].state == stages.invalidating && block.timestamp >= tokens[_tokenId].time + 10 seconds) {\n            // now the admin can directly call the invalidated to invalidate the token\n        }\n        _;\n    }\n\n    function invalidated(uint256 _tokenId) external adminOnly {\n        if (tokens[_tokenId].state == stages.invalidating && block.timestamp >= tokens[_tokenId].time + 5 seconds) {\n            tokens[_tokenId].state = stages.invalidate;\n            super._burn(_tokenId);\n            emit tokendestory(_tokenId);\n        }\n    }\n\n    modifier adminOnly {\n        require(msg.sender == _owner, \"Admin only function\");\n        _;\n    }\n\n    modifier adminOrOwnerOnly(uint256 _tokenId) {\n        require(msg.sender == _owner || msg.sender == ownerOf(_tokenId), \"Admin or owner only function\");\n        _;\n    }\n\n    // When a product is sold, an accompanying token created\n    function mint(address _to, string memory _serialNumber, string memory _name) public adminOnly {\n        super._mint(_to, _supply);\n        Token memory newToken = Token(_serialNumber, _name, '', stages.normal, block.timestamp);\n        tokens[_supply] = newToken;\n        serialNumbers[_serialNumber] = _supply++;\n        emit mintToken(_to, _serialNumber, _supply);\n    }\n\n    function invalidateToken(uint256 _tokenId) public adminOnly timedDestory(_tokenId) stateoftoken(_tokenId) {\n        tokens[_tokenId].state = stages.invalidating;\n        tokens[_tokenId].time = block.timestamp;\n        emit invalidToken(_tokenId);\n    }\n\n    function reportlost(uint256 _tokenId) public adminOrOwnerOnly(_tokenId) timedDestory(_tokenId) stateoftoken(_tokenId) {\n        tokens[_tokenId].state = stages.lost;\n        emit tokenLost(_tokenId);\n    }\n\n    function restoreToken(uint256 _tokenId) public adminOnly timedDestory(_tokenId) validToken(_tokenId)  {\n        tokens[_tokenId].state = stages.normal;\n        emit tokenrestored(_tokenId);\n    }\n\n    function checkState(uint256 _tokenId) public view returns(stages)  {\n        return tokens[_tokenId].state;\n    }\n\n    function transferFrom(address _from, address _to, uint256 _tokenId) public override timedDestory(_tokenId) adminOrOwnerOnly(_tokenId) stateoftoken(_tokenId) {\n        super.transferFrom(_from, _to, _tokenId);\n        tokens[_tokenId].information = '';\n        emit transferEvent(_from, _to, _tokenId);\n    }\n\n    function updateInformation(uint256 _tokenId, string memory _information) public adminOrOwnerOnly(_tokenId) timedDestory(_tokenId) {\n        tokens[_tokenId].information = _information;\n    }\n\n    function viewSerialNumber(uint256 _tokenId)\n        public\n        view\n        returns (string memory)\n    {\n        return tokens[_tokenId].serialNumber;\n    }\n\n    function viewName(uint256 _tokenId) public view returns (string memory) {\n        return tokens[_tokenId].name;\n    }\n\n    function viewTokenId(string memory _serialNumber)\n        public\n        view\n        returns (uint256)\n    {\n        return serialNumbers[_serialNumber];\n    }\n\n    function getTotalSupply() public view returns (uint256) {\n        return _supply;\n    }\n\n    /*\n    function ownerOf(uint256 tokenId) public view virtual override returns (address) {\n        address owner = _owners[tokenId];\n        require(owner != address(0), \"ERC721: owner query for nonexistent token\");\n        return owner;\n    }\n    */\n}\n",
  "sourcePath": "/Users/lokki/Documents/GitHub/dApp-Project-LuxChain/contracts/LuxChain.sol",
  "compiler": {
    "name": "solc",
    "version": "0.8.11+commit.d7f03943.Emscripten.clang"
  },
  "schemaVersion": "3.4.4",
  "updatedAt": "2022-04-14T17:52:39.332Z",
  "networkType": "ethereum",
  "devdoc": {
    "kind": "dev",
    "methods": {
      "approve(address,uint256)": {
        "details": "See {IERC721-approve}."
      },
      "balanceOf(address)": {
        "details": "See {IERC721-balanceOf}."
      },
      "getApproved(uint256)": {
        "details": "See {IERC721-getApproved}."
      },
      "isApprovedForAll(address,address)": {
        "details": "See {IERC721-isApprovedForAll}."
      },
      "name()": {
        "details": "See {IERC721Metadata-name}."
      },
      "ownerOf(uint256)": {
        "details": "See {IERC721-ownerOf}."
      },
      "safeTransferFrom(address,address,uint256)": {
        "details": "See {IERC721-safeTransferFrom}."
      },
      "safeTransferFrom(address,address,uint256,bytes)": {
        "details": "See {IERC721-safeTransferFrom}."
      },
      "setApprovalForAll(address,bool)": {
        "details": "See {IERC721-setApprovalForAll}."
      },
      "supportsInterface(bytes4)": {
        "details": "See {IERC165-supportsInterface}."
      },
      "symbol()": {
        "details": "See {IERC721Metadata-symbol}."
      },
      "tokenURI(uint256)": {
        "details": "See {IERC721Metadata-tokenURI}."
      }
    },
    "version": 1
  },
  "userdoc": {
    "kind": "user",
    "methods": {},
    "version": 1
  }
}